{
  "_format": "hh-sol-artifact-1",
  "contractName": "NFT",
  "sourceName": "contracts/NFT.sol",
  "abi": [
    {
      "inputs": [
        {
          "internalType": "address",
          "name": "marketplaceAddress",
          "type": "address"
        }
      ],
      "stateMutability": "nonpayable",
      "type": "constructor"
    },
    {
      "anonymous": false,
      "inputs": [
        {
          "indexed": true,
          "internalType": "address",
          "name": "owner",
          "type": "address"
        },
        {
          "indexed": true,
          "internalType": "address",
          "name": "approved",
          "type": "address"
        },
        {
          "indexed": true,
          "internalType": "uint256",
          "name": "tokenId",
          "type": "uint256"
        }
      ],
      "name": "Approval",
      "type": "event"
    },
    {
      "anonymous": false,
      "inputs": [
        {
          "indexed": true,
          "internalType": "address",
          "name": "owner",
          "type": "address"
        },
        {
          "indexed": true,
          "internalType": "address",
          "name": "operator",
          "type": "address"
        },
        {
          "indexed": false,
          "internalType": "bool",
          "name": "approved",
          "type": "bool"
        }
      ],
      "name": "ApprovalForAll",
      "type": "event"
    },
    {
      "anonymous": false,
      "inputs": [
        {
          "indexed": true,
          "internalType": "address",
          "name": "from",
          "type": "address"
        },
        {
          "indexed": true,
          "internalType": "address",
          "name": "to",
          "type": "address"
        },
        {
          "indexed": true,
          "internalType": "uint256",
          "name": "tokenId",
          "type": "uint256"
        }
      ],
      "name": "Transfer",
      "type": "event"
    },
    {
      "inputs": [
        {
          "internalType": "address",
          "name": "to",
          "type": "address"
        },
        {
          "internalType": "uint256",
          "name": "tokenId",
          "type": "uint256"
        }
      ],
      "name": "approve",
      "outputs": [],
      "stateMutability": "nonpayable",
      "type": "function"
    },
    {
      "inputs": [
        {
          "internalType": "address",
          "name": "owner",
          "type": "address"
        }
      ],
      "name": "balanceOf",
      "outputs": [
        {
          "internalType": "uint256",
          "name": "",
          "type": "uint256"
        }
      ],
      "stateMutability": "view",
      "type": "function"
    },
    {
      "inputs": [
        {
          "internalType": "string",
          "name": "_tokenURI",
          "type": "string"
        }
      ],
      "name": "createToken",
      "outputs": [
        {
          "internalType": "uint256",
          "name": "tokenId",
          "type": "uint256"
        }
      ],
      "stateMutability": "nonpayable",
      "type": "function"
    },
    {
      "inputs": [
        {
          "internalType": "uint256",
          "name": "tokenId",
          "type": "uint256"
        }
      ],
      "name": "getApproved",
      "outputs": [
        {
          "internalType": "address",
          "name": "",
          "type": "address"
        }
      ],
      "stateMutability": "view",
      "type": "function"
    },
    {
      "inputs": [
        {
          "internalType": "address",
          "name": "owner",
          "type": "address"
        },
        {
          "internalType": "address",
          "name": "operator",
          "type": "address"
        }
      ],
      "name": "isApprovedForAll",
      "outputs": [
        {
          "internalType": "bool",
          "name": "",
          "type": "bool"
        }
      ],
      "stateMutability": "view",
      "type": "function"
    },
    {
      "inputs": [],
      "name": "name",
      "outputs": [
        {
          "internalType": "string",
          "name": "",
          "type": "string"
        }
      ],
      "stateMutability": "view",
      "type": "function"
    },
    {
      "inputs": [
        {
          "internalType": "uint256",
          "name": "tokenId",
          "type": "uint256"
        }
      ],
      "name": "ownerOf",
      "outputs": [
        {
          "internalType": "address",
          "name": "",
          "type": "address"
        }
      ],
      "stateMutability": "view",
      "type": "function"
    },
    {
      "inputs": [
        {
          "internalType": "address",
          "name": "from",
          "type": "address"
        },
        {
          "internalType": "address",
          "name": "to",
          "type": "address"
        },
        {
          "internalType": "uint256",
          "name": "tokenId",
          "type": "uint256"
        }
      ],
      "name": "safeTransferFrom",
      "outputs": [],
      "stateMutability": "nonpayable",
      "type": "function"
    },
    {
      "inputs": [
        {
          "internalType": "address",
          "name": "from",
          "type": "address"
        },
        {
          "internalType": "address",
          "name": "to",
          "type": "address"
        },
        {
          "internalType": "uint256",
          "name": "tokenId",
          "type": "uint256"
        },
        {
          "internalType": "bytes",
          "name": "_data",
          "type": "bytes"
        }
      ],
      "name": "safeTransferFrom",
      "outputs": [],
      "stateMutability": "nonpayable",
      "type": "function"
    },
    {
      "inputs": [
        {
          "internalType": "address",
          "name": "operator",
          "type": "address"
        },
        {
          "internalType": "bool",
          "name": "approved",
          "type": "bool"
        }
      ],
      "name": "setApprovalForAll",
      "outputs": [],
      "stateMutability": "nonpayable",
      "type": "function"
    },
    {
      "inputs": [
        {
          "internalType": "bytes4",
          "name": "interfaceId",
          "type": "bytes4"
        }
      ],
      "name": "supportsInterface",
      "outputs": [
        {
          "internalType": "bool",
          "name": "",
          "type": "bool"
        }
      ],
      "stateMutability": "view",
      "type": "function"
    },
    {
      "inputs": [],
      "name": "symbol",
      "outputs": [
        {
          "internalType": "string",
          "name": "",
          "type": "string"
        }
      ],
      "stateMutability": "view",
      "type": "function"
    },
    {
      "inputs": [
        {
          "internalType": "uint256",
          "name": "tokenId",
          "type": "uint256"
        }
      ],
      "name": "tokenURI",
      "outputs": [
        {
          "internalType": "string",
          "name": "",
          "type": "string"
        }
      ],
      "stateMutability": "view",
      "type": "function"
    },
    {
      "inputs": [
        {
          "internalType": "address",
          "name": "from",
          "type": "address"
        },
        {
          "internalType": "address",
          "name": "to",
          "type": "address"
        },
        {
          "internalType": "uint256",
          "name": "tokenId",
          "type": "uint256"
        }
      ],
      "name": "transferFrom",
      "outputs": [],
      "stateMutability": "nonpayable",
      "type": "function"
    }
  ],
  "bytecode": "0x60806040523480156200001157600080fd5b5060405162002f6c38038062002f6c833981810160405281019062000037919062000239565b6040518060400160405280600d81526020017f4469676974616c20546f6b656e000000000000000000000000000000000000008152506040518060400160405280600581526020017f44494749540000000000000000000000000000000000000000000000000000008152508160009080519060200190620000bb9291906200011f565b508060019080519060200190620000d49291906200011f565b50505080600860006101000a81548173ffffffffffffffffffffffffffffffffffffffff021916908373ffffffffffffffffffffffffffffffffffffffff16021790555050620002d0565b8280546200012d906200029a565b90600052602060002090601f0160209004810192826200015157600085556200019d565b82601f106200016c57805160ff19168380011785556200019d565b828001600101855582156200019d579182015b828111156200019c5782518255916020019190600101906200017f565b5b509050620001ac9190620001b0565b5090565b5b80821115620001cb576000816000905550600101620001b1565b5090565b600080fd5b600073ffffffffffffffffffffffffffffffffffffffff82169050919050565b60006200020182620001d4565b9050919050565b6200021381620001f4565b81146200021f57600080fd5b50565b600081519050620002338162000208565b92915050565b600060208284031215620002525762000251620001cf565b5b6000620002628482850162000222565b91505092915050565b7f4e487b7100000000000000000000000000000000000000000000000000000000600052602260045260246000fd5b60006002820490506001821680620002b357607f821691505b60208210811415620002ca57620002c96200026b565b5b50919050565b612c8c80620002e06000396000f3fe608060405234801561001057600080fd5b50600436106100ea5760003560e01c80636352211e1161008c578063a22cb46511610066578063a22cb4651461026f578063b88d4fde1461028b578063c87b56dd146102a7578063e985e9c5146102d7576100ea565b80636352211e146101f157806370a082311461022157806395d89b4114610251576100ea565b8063095ea7b3116100c8578063095ea7b31461016d57806323b872dd1461018957806342842e0e146101a557806345576f94146101c1576100ea565b806301ffc9a7146100ef57806306fdde031461011f578063081812fc1461013d575b600080fd5b61010960048036038101906101049190611a01565b610307565b6040516101169190611a49565b60405180910390f35b6101276103e9565b6040516101349190611afd565b60405180910390f35b61015760048036038101906101529190611b55565b61047b565b6040516101649190611bc3565b60405180910390f35b61018760048036038101906101829190611c0a565b610500565b005b6101a3600480360381019061019e9190611c4a565b610618565b005b6101bf60048036038101906101ba9190611c4a565b610678565b005b6101db60048036038101906101d69190611dd2565b610698565b6040516101e89190611e2a565b60405180910390f35b61020b60048036038101906102069190611b55565b6106fc565b6040516102189190611bc3565b60405180910390f35b61023b60048036038101906102369190611e45565b6107ae565b6040516102489190611e2a565b60405180910390f35b610259610866565b6040516102669190611afd565b60405180910390f35b61028960048036038101906102849190611e9e565b6108f8565b005b6102a560048036038101906102a09190611f7f565b61090e565b005b6102c160048036038101906102bc9190611b55565b610970565b6040516102ce9190611afd565b60405180910390f35b6102f160048036038101906102ec9190612002565b610982565b6040516102fe9190611a49565b60405180910390f35b60007f80ac58cd000000000000000000000000000000000000000000000000000000007bffffffffffffffffffffffffffffffffffffffffffffffffffffffff1916827bffffffffffffffffffffffffffffffffffffffffffffffffffffffff191614806103d257507f5b5e139f000000000000000000000000000000000000000000000000000000007bffffffffffffffffffffffffffffffffffffffffffffffffffffffff1916827bffffffffffffffffffffffffffffffffffffffffffffffffffffffff1916145b806103e257506103e182610a16565b5b9050919050565b6060600080546103f890612071565b80601f016020809104026020016040519081016040528092919081815260200182805461042490612071565b80156104715780601f1061044657610100808354040283529160200191610471565b820191906000526020600020905b81548152906001019060200180831161045457829003601f168201915b5050505050905090565b600061048682610a80565b6104c5576040517f08c379a00000000000000000000000000000000000000000000000000000000081526004016104bc90612115565b60405180910390fd5b6004600083815260200190815260200160002060009054906101000a900473ffffffffffffffffffffffffffffffffffffffff169050919050565b600061050b826106fc565b90508073ffffffffffffffffffffffffffffffffffffffff168373ffffffffffffffffffffffffffffffffffffffff16141561057c576040517f08c379a0000000000000000000000000000000000000000000000000000000008152600401610573906121a7565b60405180910390fd5b8073ffffffffffffffffffffffffffffffffffffffff1661059b610aec565b73ffffffffffffffffffffffffffffffffffffffff1614806105ca57506105c9816105c4610aec565b610982565b5b610609576040517f08c379a000000000000000000000000000000000000000000000000000000000815260040161060090612239565b60405180910390fd5b6106138383610af4565b505050565b610629610623610aec565b82610bad565b610668576040517f08c379a000000000000000000000000000000000000000000000000000000000815260040161065f906122cb565b60405180910390fd5b610673838383610c8b565b505050565b6106938383836040518060200160405280600081525061090e565b505050565b60006106a46007610ef2565b60006106b06007610f08565b90506106bc3382610f16565b6106c68184610f34565b6106f3600860009054906101000a900473ffffffffffffffffffffffffffffffffffffffff1660016108f8565b80915050919050565b6000806002600084815260200190815260200160002060009054906101000a900473ffffffffffffffffffffffffffffffffffffffff169050600073ffffffffffffffffffffffffffffffffffffffff168173ffffffffffffffffffffffffffffffffffffffff1614156107a5576040517f08c379a000000000000000000000000000000000000000000000000000000000815260040161079c9061235d565b60405180910390fd5b80915050919050565b60008073ffffffffffffffffffffffffffffffffffffffff168273ffffffffffffffffffffffffffffffffffffffff16141561081f576040517f08c379a0000000000000000000000000000000000000000000000000000000008152600401610816906123ef565b60405180910390fd5b600360008373ffffffffffffffffffffffffffffffffffffffff1673ffffffffffffffffffffffffffffffffffffffff168152602001908152602001600020549050919050565b60606001805461087590612071565b80601f01602080910402602001604051908101604052809291908181526020018280546108a190612071565b80156108ee5780601f106108c3576101008083540402835291602001916108ee565b820191906000526020600020905b8154815290600101906020018083116108d157829003601f168201915b5050505050905090565b61090a610903610aec565b8383610fa8565b5050565b61091f610919610aec565b83610bad565b61095e576040517f08c379a0000000000000000000000000000000000000000000000000000000008152600401610955906122cb565b60405180910390fd5b61096a84848484611115565b50505050565b606061097b82611171565b9050919050565b6000600560008473ffffffffffffffffffffffffffffffffffffffff1673ffffffffffffffffffffffffffffffffffffffff16815260200190815260200160002060008373ffffffffffffffffffffffffffffffffffffffff1673ffffffffffffffffffffffffffffffffffffffff16815260200190815260200160002060009054906101000a900460ff16905092915050565b60007f01ffc9a7000000000000000000000000000000000000000000000000000000007bffffffffffffffffffffffffffffffffffffffffffffffffffffffff1916827bffffffffffffffffffffffffffffffffffffffffffffffffffffffff1916149050919050565b60008073ffffffffffffffffffffffffffffffffffffffff166002600084815260200190815260200160002060009054906101000a900473ffffffffffffffffffffffffffffffffffffffff1673ffffffffffffffffffffffffffffffffffffffff1614159050919050565b600033905090565b816004600083815260200190815260200160002060006101000a81548173ffffffffffffffffffffffffffffffffffffffff021916908373ffffffffffffffffffffffffffffffffffffffff160217905550808273ffffffffffffffffffffffffffffffffffffffff16610b67836106fc565b73ffffffffffffffffffffffffffffffffffffffff167f8c5be1e5ebec7d5bd14f71427d1e84f3dd0314c0f7b2291e5b200ac8c7c3b92560405160405180910390a45050565b6000610bb882610a80565b610bf7576040517f08c379a0000000000000000000000000000000000000000000000000000000008152600401610bee90612481565b60405180910390fd5b6000610c02836106fc565b90508073ffffffffffffffffffffffffffffffffffffffff168473ffffffffffffffffffffffffffffffffffffffff161480610c7157508373ffffffffffffffffffffffffffffffffffffffff16610c598461047b565b73ffffffffffffffffffffffffffffffffffffffff16145b80610c825750610c818185610982565b5b91505092915050565b8273ffffffffffffffffffffffffffffffffffffffff16610cab826106fc565b73ffffffffffffffffffffffffffffffffffffffff1614610d01576040517f08c379a0000000000000000000000000000000000000000000000000000000008152600401610cf890612513565b60405180910390fd5b600073ffffffffffffffffffffffffffffffffffffffff168273ffffffffffffffffffffffffffffffffffffffff161415610d71576040517f08c379a0000000000000000000000000000000000000000000000000000000008152600401610d68906125a5565b60405180910390fd5b610d7c8383836112c3565b610d87600082610af4565b6001600360008573ffffffffffffffffffffffffffffffffffffffff1673ffffffffffffffffffffffffffffffffffffffff1681526020019081526020016000206000828254610dd791906125f4565b925050819055506001600360008473ffffffffffffffffffffffffffffffffffffffff1673ffffffffffffffffffffffffffffffffffffffff1681526020019081526020016000206000828254610e2e9190612628565b92505081905550816002600083815260200190815260200160002060006101000a81548173ffffffffffffffffffffffffffffffffffffffff021916908373ffffffffffffffffffffffffffffffffffffffff160217905550808273ffffffffffffffffffffffffffffffffffffffff168473ffffffffffffffffffffffffffffffffffffffff167fddf252ad1be2c89b69c2b068fc378daa952ba7f163c4a11628f55a4df523b3ef60405160405180910390a4610eed8383836112c8565b505050565b6001816000016000828254019250508190555050565b600081600001549050919050565b610f308282604051806020016040528060008152506112cd565b5050565b610f3d82610a80565b610f7c576040517f08c379a0000000000000000000000000000000000000000000000000000000008152600401610f73906126f0565b60405180910390fd5b80600660008481526020019081526020016000209080519060200190610fa39291906118f2565b505050565b8173ffffffffffffffffffffffffffffffffffffffff168373ffffffffffffffffffffffffffffffffffffffff161415611017576040517f08c379a000000000000000000000000000000000000000000000000000000000815260040161100e9061275c565b60405180910390fd5b80600560008573ffffffffffffffffffffffffffffffffffffffff1673ffffffffffffffffffffffffffffffffffffffff16815260200190815260200160002060008473ffffffffffffffffffffffffffffffffffffffff1673ffffffffffffffffffffffffffffffffffffffff16815260200190815260200160002060006101000a81548160ff0219169083151502179055508173ffffffffffffffffffffffffffffffffffffffff168373ffffffffffffffffffffffffffffffffffffffff167f17307eab39ab6107e8899845ad3d59bd9653f200f220920489ca2b5937696c31836040516111089190611a49565b60405180910390a3505050565b611120848484610c8b565b61112c84848484611328565b61116b576040517f08c379a0000000000000000000000000000000000000000000000000000000008152600401611162906127ee565b60405180910390fd5b50505050565b606061117c82610a80565b6111bb576040517f08c379a00000000000000000000000000000000000000000000000000000000081526004016111b290612880565b60405180910390fd5b60006006600084815260200190815260200160002080546111db90612071565b80601f016020809104026020016040519081016040528092919081815260200182805461120790612071565b80156112545780601f1061122957610100808354040283529160200191611254565b820191906000526020600020905b81548152906001019060200180831161123757829003601f168201915b5050505050905060006112656114b0565b905060008151141561127b5781925050506112be565b6000825111156112b05780826040516020016112989291906128dc565b604051602081830303815290604052925050506112be565b6112b9846114ed565b925050505b919050565b505050565b505050565b6112d78383611594565b6112e46000848484611328565b611323576040517f08c379a000000000000000000000000000000000000000000000000000000000815260040161131a906127ee565b60405180910390fd5b505050565b60006113498473ffffffffffffffffffffffffffffffffffffffff1661176e565b156114a3578373ffffffffffffffffffffffffffffffffffffffff1663150b7a02611372610aec565b8786866040518563ffffffff1660e01b81526004016113949493929190612955565b6020604051808303816000875af19250505080156113d057506040513d601f19601f820116820180604052508101906113cd91906129b6565b60015b611453573d8060008114611400576040519150601f19603f3d011682016040523d82523d6000602084013e611405565b606091505b5060008151141561144b576040517f08c379a0000000000000000000000000000000000000000000000000000000008152600401611442906127ee565b60405180910390fd5b805181602001fd5b63150b7a0260e01b7bffffffffffffffffffffffffffffffffffffffffffffffffffffffff1916817bffffffffffffffffffffffffffffffffffffffffffffffffffffffff1916149150506114a8565b600190505b949350505050565b60606040518060400160405280601b81526020017f687474703a2f2f6c6f63616c686f73743a383038302f697066732f0000000000815250905090565b60606114f882610a80565b611537576040517f08c379a000000000000000000000000000000000000000000000000000000000815260040161152e90612a55565b60405180910390fd5b60006115416114b0565b90506000815111611561576040518060200160405280600081525061158c565b8061156b84611791565b60405160200161157c9291906128dc565b6040516020818303038152906040525b915050919050565b600073ffffffffffffffffffffffffffffffffffffffff168273ffffffffffffffffffffffffffffffffffffffff161415611604576040517f08c379a00000000000000000000000000000000000000000000000000000000081526004016115fb90612ac1565b60405180910390fd5b61160d81610a80565b1561164d576040517f08c379a000000000000000000000000000000000000000000000000000000000815260040161164490612b2d565b60405180910390fd5b611659600083836112c3565b6001600360008473ffffffffffffffffffffffffffffffffffffffff1673ffffffffffffffffffffffffffffffffffffffff16815260200190815260200160002060008282546116a99190612628565b92505081905550816002600083815260200190815260200160002060006101000a81548173ffffffffffffffffffffffffffffffffffffffff021916908373ffffffffffffffffffffffffffffffffffffffff160217905550808273ffffffffffffffffffffffffffffffffffffffff16600073ffffffffffffffffffffffffffffffffffffffff167fddf252ad1be2c89b69c2b068fc378daa952ba7f163c4a11628f55a4df523b3ef60405160405180910390a461176a600083836112c8565b5050565b6000808273ffffffffffffffffffffffffffffffffffffffff163b119050919050565b606060008214156117d9576040518060400160405280600181526020017f300000000000000000000000000000000000000000000000000000000000000081525090506118ed565b600082905060005b6000821461180b5780806117f490612b4d565b915050600a826118049190612bc5565b91506117e1565b60008167ffffffffffffffff81111561182757611826611ca7565b5b6040519080825280601f01601f1916602001820160405280156118595781602001600182028036833780820191505090505b5090505b600085146118e65760018261187291906125f4565b9150600a856118819190612bf6565b603061188d9190612628565b60f81b8183815181106118a3576118a2612c27565b5b60200101907effffffffffffffffffffffffffffffffffffffffffffffffffffffffffffff1916908160001a905350600a856118df9190612bc5565b945061185d565b8093505050505b919050565b8280546118fe90612071565b90600052602060002090601f0160209004810192826119205760008555611967565b82601f1061193957805160ff1916838001178555611967565b82800160010185558215611967579182015b8281111561196657825182559160200191906001019061194b565b5b5090506119749190611978565b5090565b5b80821115611991576000816000905550600101611979565b5090565b6000604051905090565b600080fd5b600080fd5b60007fffffffff0000000000000000000000000000000000000000000000000000000082169050919050565b6119de816119a9565b81146119e957600080fd5b50565b6000813590506119fb816119d5565b92915050565b600060208284031215611a1757611a1661199f565b5b6000611a25848285016119ec565b91505092915050565b60008115159050919050565b611a4381611a2e565b82525050565b6000602082019050611a5e6000830184611a3a565b92915050565b600081519050919050565b600082825260208201905092915050565b60005b83811015611a9e578082015181840152602081019050611a83565b83811115611aad576000848401525b50505050565b6000601f19601f8301169050919050565b6000611acf82611a64565b611ad98185611a6f565b9350611ae9818560208601611a80565b611af281611ab3565b840191505092915050565b60006020820190508181036000830152611b178184611ac4565b905092915050565b6000819050919050565b611b3281611b1f565b8114611b3d57600080fd5b50565b600081359050611b4f81611b29565b92915050565b600060208284031215611b6b57611b6a61199f565b5b6000611b7984828501611b40565b91505092915050565b600073ffffffffffffffffffffffffffffffffffffffff82169050919050565b6000611bad82611b82565b9050919050565b611bbd81611ba2565b82525050565b6000602082019050611bd86000830184611bb4565b92915050565b611be781611ba2565b8114611bf257600080fd5b50565b600081359050611c0481611bde565b92915050565b60008060408385031215611c2157611c2061199f565b5b6000611c2f85828601611bf5565b9250506020611c4085828601611b40565b9150509250929050565b600080600060608486031215611c6357611c6261199f565b5b6000611c7186828701611bf5565b9350506020611c8286828701611bf5565b9250506040611c9386828701611b40565b9150509250925092565b600080fd5b600080fd5b7f4e487b7100000000000000000000000000000000000000000000000000000000600052604160045260246000fd5b611cdf82611ab3565b810181811067ffffffffffffffff82111715611cfe57611cfd611ca7565b5b80604052505050565b6000611d11611995565b9050611d1d8282611cd6565b919050565b600067ffffffffffffffff821115611d3d57611d3c611ca7565b5b611d4682611ab3565b9050602081019050919050565b82818337600083830152505050565b6000611d75611d7084611d22565b611d07565b905082815260208101848484011115611d9157611d90611ca2565b5b611d9c848285611d53565b509392505050565b600082601f830112611db957611db8611c9d565b5b8135611dc9848260208601611d62565b91505092915050565b600060208284031215611de857611de761199f565b5b600082013567ffffffffffffffff811115611e0657611e056119a4565b5b611e1284828501611da4565b91505092915050565b611e2481611b1f565b82525050565b6000602082019050611e3f6000830184611e1b565b92915050565b600060208284031215611e5b57611e5a61199f565b5b6000611e6984828501611bf5565b91505092915050565b611e7b81611a2e565b8114611e8657600080fd5b50565b600081359050611e9881611e72565b92915050565b60008060408385031215611eb557611eb461199f565b5b6000611ec385828601611bf5565b9250506020611ed485828601611e89565b9150509250929050565b600067ffffffffffffffff821115611ef957611ef8611ca7565b5b611f0282611ab3565b9050602081019050919050565b6000611f22611f1d84611ede565b611d07565b905082815260208101848484011115611f3e57611f3d611ca2565b5b611f49848285611d53565b509392505050565b600082601f830112611f6657611f65611c9d565b5b8135611f76848260208601611f0f565b91505092915050565b60008060008060808587031215611f9957611f9861199f565b5b6000611fa787828801611bf5565b9450506020611fb887828801611bf5565b9350506040611fc987828801611b40565b925050606085013567ffffffffffffffff811115611fea57611fe96119a4565b5b611ff687828801611f51565b91505092959194509250565b600080604083850312156120195761201861199f565b5b600061202785828601611bf5565b925050602061203885828601611bf5565b9150509250929050565b7f4e487b7100000000000000000000000000000000000000000000000000000000600052602260045260246000fd5b6000600282049050600182168061208957607f821691505b6020821081141561209d5761209c612042565b5b50919050565b7f4552433732313a20617070726f76656420717565727920666f72206e6f6e657860008201527f697374656e7420746f6b656e0000000000000000000000000000000000000000602082015250565b60006120ff602c83611a6f565b915061210a826120a3565b604082019050919050565b6000602082019050818103600083015261212e816120f2565b9050919050565b7f4552433732313a20617070726f76616c20746f2063757272656e74206f776e6560008201527f7200000000000000000000000000000000000000000000000000000000000000602082015250565b6000612191602183611a6f565b915061219c82612135565b604082019050919050565b600060208201905081810360008301526121c081612184565b9050919050565b7f4552433732313a20617070726f76652063616c6c6572206973206e6f74206f7760008201527f6e6572206e6f7220617070726f76656420666f7220616c6c0000000000000000602082015250565b6000612223603883611a6f565b915061222e826121c7565b604082019050919050565b6000602082019050818103600083015261225281612216565b9050919050565b7f4552433732313a207472616e736665722063616c6c6572206973206e6f74206f60008201527f776e6572206e6f7220617070726f766564000000000000000000000000000000602082015250565b60006122b5603183611a6f565b91506122c082612259565b604082019050919050565b600060208201905081810360008301526122e4816122a8565b9050919050565b7f4552433732313a206f776e657220717565727920666f72206e6f6e657869737460008201527f656e7420746f6b656e0000000000000000000000000000000000000000000000602082015250565b6000612347602983611a6f565b9150612352826122eb565b604082019050919050565b600060208201905081810360008301526123768161233a565b9050919050565b7f4552433732313a2062616c616e636520717565727920666f7220746865207a6560008201527f726f206164647265737300000000000000000000000000000000000000000000602082015250565b60006123d9602a83611a6f565b91506123e48261237d565b604082019050919050565b60006020820190508181036000830152612408816123cc565b9050919050565b7f4552433732313a206f70657261746f7220717565727920666f72206e6f6e657860008201527f697374656e7420746f6b656e0000000000000000000000000000000000000000602082015250565b600061246b602c83611a6f565b91506124768261240f565b604082019050919050565b6000602082019050818103600083015261249a8161245e565b9050919050565b7f4552433732313a207472616e736665722066726f6d20696e636f72726563742060008201527f6f776e6572000000000000000000000000000000000000000000000000000000602082015250565b60006124fd602583611a6f565b9150612508826124a1565b604082019050919050565b6000602082019050818103600083015261252c816124f0565b9050919050565b7f4552433732313a207472616e7366657220746f20746865207a65726f2061646460008201527f7265737300000000000000000000000000000000000000000000000000000000602082015250565b600061258f602483611a6f565b915061259a82612533565b604082019050919050565b600060208201905081810360008301526125be81612582565b9050919050565b7f4e487b7100000000000000000000000000000000000000000000000000000000600052601160045260246000fd5b60006125ff82611b1f565b915061260a83611b1f565b92508282101561261d5761261c6125c5565b5b828203905092915050565b600061263382611b1f565b915061263e83611b1f565b9250827fffffffffffffffffffffffffffffffffffffffffffffffffffffffffffffffff03821115612673576126726125c5565b5b828201905092915050565b7f45524337323155524953746f726167653a2055524920736574206f66206e6f6e60008201527f6578697374656e7420746f6b656e000000000000000000000000000000000000602082015250565b60006126da602e83611a6f565b91506126e58261267e565b604082019050919050565b60006020820190508181036000830152612709816126cd565b9050919050565b7f4552433732313a20617070726f766520746f2063616c6c657200000000000000600082015250565b6000612746601983611a6f565b915061275182612710565b602082019050919050565b6000602082019050818103600083015261277581612739565b9050919050565b7f4552433732313a207472616e7366657220746f206e6f6e20455243373231526560008201527f63656976657220696d706c656d656e7465720000000000000000000000000000602082015250565b60006127d8603283611a6f565b91506127e38261277c565b604082019050919050565b60006020820190508181036000830152612807816127cb565b9050919050565b7f45524337323155524953746f726167653a2055524920717565727920666f722060008201527f6e6f6e6578697374656e7420746f6b656e000000000000000000000000000000602082015250565b600061286a603183611a6f565b91506128758261280e565b604082019050919050565b600060208201905081810360008301526128998161285d565b9050919050565b600081905092915050565b60006128b682611a64565b6128c081856128a0565b93506128d0818560208601611a80565b80840191505092915050565b60006128e882856128ab565b91506128f482846128ab565b91508190509392505050565b600081519050919050565b600082825260208201905092915050565b600061292782612900565b612931818561290b565b9350612941818560208601611a80565b61294a81611ab3565b840191505092915050565b600060808201905061296a6000830187611bb4565b6129776020830186611bb4565b6129846040830185611e1b565b8181036060830152612996818461291c565b905095945050505050565b6000815190506129b0816119d5565b92915050565b6000602082840312156129cc576129cb61199f565b5b60006129da848285016129a1565b91505092915050565b7f4552433732314d657461646174613a2055524920717565727920666f72206e6f60008201527f6e6578697374656e7420746f6b656e0000000000000000000000000000000000602082015250565b6000612a3f602f83611a6f565b9150612a4a826129e3565b604082019050919050565b60006020820190508181036000830152612a6e81612a32565b9050919050565b7f4552433732313a206d696e7420746f20746865207a65726f2061646472657373600082015250565b6000612aab602083611a6f565b9150612ab682612a75565b602082019050919050565b60006020820190508181036000830152612ada81612a9e565b9050919050565b7f4552433732313a20746f6b656e20616c7265616479206d696e74656400000000600082015250565b6000612b17601c83611a6f565b9150612b2282612ae1565b602082019050919050565b60006020820190508181036000830152612b4681612b0a565b9050919050565b6000612b5882611b1f565b91507fffffffffffffffffffffffffffffffffffffffffffffffffffffffffffffffff821415612b8b57612b8a6125c5565b5b600182019050919050565b7f4e487b7100000000000000000000000000000000000000000000000000000000600052601260045260246000fd5b6000612bd082611b1f565b9150612bdb83611b1f565b925082612beb57612bea612b96565b5b828204905092915050565b6000612c0182611b1f565b9150612c0c83611b1f565b925082612c1c57612c1b612b96565b5b828206905092915050565b7f4e487b7100000000000000000000000000000000000000000000000000000000600052603260045260246000fdfea26469706673582212209f2ab74f5ef289f75d55848ed364e6f21f82e024e0c9b4575adeab8c929bc13d64736f6c634300080b0033",
  "linkReferences": {},
  "deployedLinkReferences": {}
}