{
  "_format": "hh-sol-artifact-1",
  "contractName": "NFTMarket",
  "sourceName": "contracts/NFTMarket.sol",
  "abi": [
    {
      "inputs": [],
      "stateMutability": "nonpayable",
      "type": "constructor"
    },
    {
      "anonymous": false,
      "inputs": [
        {
          "indexed": false,
          "internalType": "address",
          "name": "user",
          "type": "address"
        },
        {
          "indexed": false,
          "internalType": "uint256",
          "name": "_balance",
          "type": "uint256"
        }
      ],
      "name": "BalanceWithdrawn",
      "type": "event"
    },
    {
      "anonymous": false,
      "inputs": [
        {
          "indexed": true,
          "internalType": "uint256",
          "name": "itemId",
          "type": "uint256"
        },
        {
          "indexed": true,
          "internalType": "address",
          "name": "nftContractAddress",
          "type": "address"
        },
        {
          "indexed": true,
          "internalType": "uint256",
          "name": "tokenId",
          "type": "uint256"
        },
        {
          "indexed": false,
          "internalType": "address payable",
          "name": "seller",
          "type": "address"
        },
        {
          "indexed": false,
          "internalType": "address payable",
          "name": "owner",
          "type": "address"
        },
        {
          "indexed": false,
          "internalType": "uint256",
          "name": "price",
          "type": "uint256"
        },
        {
          "indexed": false,
          "internalType": "bool",
          "name": "sold",
          "type": "bool"
        },
        {
          "indexed": false,
          "internalType": "string",
          "name": "category",
          "type": "string"
        },
        {
          "indexed": false,
          "internalType": "string",
          "name": "username",
          "type": "string"
        },
        {
          "indexed": false,
          "internalType": "uint256",
          "name": "timestamp",
          "type": "uint256"
        }
      ],
      "name": "MarketItemCreated",
      "type": "event"
    },
    {
      "anonymous": false,
      "inputs": [
        {
          "indexed": true,
          "internalType": "uint256",
          "name": "itemId",
          "type": "uint256"
        },
        {
          "indexed": true,
          "internalType": "uint256",
          "name": "tokenId",
          "type": "uint256"
        },
        {
          "indexed": false,
          "internalType": "address payable",
          "name": "sellers",
          "type": "address"
        }
      ],
      "name": "MarketItemSold",
      "type": "event"
    },
    {
      "inputs": [],
      "name": "_itemIds",
      "outputs": [
        {
          "internalType": "uint256",
          "name": "",
          "type": "uint256"
        }
      ],
      "stateMutability": "view",
      "type": "function"
    },
    {
      "inputs": [
        {
          "internalType": "address",
          "name": "nftContractAddress",
          "type": "address"
        },
        {
          "internalType": "uint256",
          "name": "tokenId",
          "type": "uint256"
        },
        {
          "internalType": "uint256",
          "name": "price",
          "type": "uint256"
        },
        {
          "internalType": "string",
          "name": "_category",
          "type": "string"
        },
        {
          "internalType": "string",
          "name": "_username",
          "type": "string"
        },
        {
          "internalType": "uint256",
          "name": "_timestamp",
          "type": "uint256"
        }
      ],
      "name": "createMarketItem",
      "outputs": [],
      "stateMutability": "payable",
      "type": "function"
    },
    {
      "inputs": [
        {
          "internalType": "address",
          "name": "nftContractAddress",
          "type": "address"
        },
        {
          "internalType": "uint256",
          "name": "itemId",
          "type": "uint256"
        }
      ],
      "name": "createMarketSale",
      "outputs": [],
      "stateMutability": "payable",
      "type": "function"
    },
    {
      "inputs": [],
      "name": "fetchItemsCreated",
      "outputs": [
        {
          "components": [
            {
              "internalType": "uint256",
              "name": "itemId",
              "type": "uint256"
            },
            {
              "internalType": "address",
              "name": "nftContractAddress",
              "type": "address"
            },
            {
              "internalType": "uint256",
              "name": "tokenId",
              "type": "uint256"
            },
            {
              "internalType": "address payable",
              "name": "seller",
              "type": "address"
            },
            {
              "internalType": "address payable",
              "name": "owner",
              "type": "address"
            },
            {
              "internalType": "uint256",
              "name": "price",
              "type": "uint256"
            },
            {
              "internalType": "bool",
              "name": "sold",
              "type": "bool"
            },
            {
              "internalType": "string",
              "name": "category",
              "type": "string"
            },
            {
              "internalType": "string",
              "name": "username",
              "type": "string"
            },
            {
              "internalType": "uint256",
              "name": "timestamp",
              "type": "uint256"
            }
          ],
          "internalType": "struct NFTMarket.MarketItem[]",
          "name": "",
          "type": "tuple[]"
        }
      ],
      "stateMutability": "view",
      "type": "function"
    },
    {
      "inputs": [],
      "name": "fetchMarketItems",
      "outputs": [
        {
          "components": [
            {
              "internalType": "uint256",
              "name": "itemId",
              "type": "uint256"
            },
            {
              "internalType": "address",
              "name": "nftContractAddress",
              "type": "address"
            },
            {
              "internalType": "uint256",
              "name": "tokenId",
              "type": "uint256"
            },
            {
              "internalType": "address payable",
              "name": "seller",
              "type": "address"
            },
            {
              "internalType": "address payable",
              "name": "owner",
              "type": "address"
            },
            {
              "internalType": "uint256",
              "name": "price",
              "type": "uint256"
            },
            {
              "internalType": "bool",
              "name": "sold",
              "type": "bool"
            },
            {
              "internalType": "string",
              "name": "category",
              "type": "string"
            },
            {
              "internalType": "string",
              "name": "username",
              "type": "string"
            },
            {
              "internalType": "uint256",
              "name": "timestamp",
              "type": "uint256"
            }
          ],
          "internalType": "struct NFTMarket.MarketItem[]",
          "name": "",
          "type": "tuple[]"
        }
      ],
      "stateMutability": "view",
      "type": "function"
    },
    {
      "inputs": [],
      "name": "fetchMyNFTs",
      "outputs": [
        {
          "components": [
            {
              "internalType": "uint256",
              "name": "itemId",
              "type": "uint256"
            },
            {
              "internalType": "address",
              "name": "nftContractAddress",
              "type": "address"
            },
            {
              "internalType": "uint256",
              "name": "tokenId",
              "type": "uint256"
            },
            {
              "internalType": "address payable",
              "name": "seller",
              "type": "address"
            },
            {
              "internalType": "address payable",
              "name": "owner",
              "type": "address"
            },
            {
              "internalType": "uint256",
              "name": "price",
              "type": "uint256"
            },
            {
              "internalType": "bool",
              "name": "sold",
              "type": "bool"
            },
            {
              "internalType": "string",
              "name": "category",
              "type": "string"
            },
            {
              "internalType": "string",
              "name": "username",
              "type": "string"
            },
            {
              "internalType": "uint256",
              "name": "timestamp",
              "type": "uint256"
            }
          ],
          "internalType": "struct NFTMarket.MarketItem[]",
          "name": "",
          "type": "tuple[]"
        }
      ],
      "stateMutability": "view",
      "type": "function"
    },
    {
      "inputs": [],
      "name": "getListingPrice",
      "outputs": [
        {
          "internalType": "uint256",
          "name": "_listingPrice",
          "type": "uint256"
        }
      ],
      "stateMutability": "view",
      "type": "function"
    },
    {
      "inputs": [
        {
          "internalType": "uint256",
          "name": "",
          "type": "uint256"
        }
      ],
      "name": "idToMarketItem",
      "outputs": [
        {
          "internalType": "uint256",
          "name": "itemId",
          "type": "uint256"
        },
        {
          "internalType": "address",
          "name": "nftContractAddress",
          "type": "address"
        },
        {
          "internalType": "uint256",
          "name": "tokenId",
          "type": "uint256"
        },
        {
          "internalType": "address payable",
          "name": "seller",
          "type": "address"
        },
        {
          "internalType": "address payable",
          "name": "owner",
          "type": "address"
        },
        {
          "internalType": "uint256",
          "name": "price",
          "type": "uint256"
        },
        {
          "internalType": "bool",
          "name": "sold",
          "type": "bool"
        },
        {
          "internalType": "string",
          "name": "category",
          "type": "string"
        },
        {
          "internalType": "string",
          "name": "username",
          "type": "string"
        },
        {
          "internalType": "uint256",
          "name": "timestamp",
          "type": "uint256"
        }
      ],
      "stateMutability": "view",
      "type": "function"
    },
    {
      "inputs": [
        {
          "internalType": "address",
          "name": "_newOwner",
          "type": "address"
        }
      ],
      "name": "transferOwnership",
      "outputs": [
        {
          "internalType": "bool",
          "name": "transferred",
          "type": "bool"
        }
      ],
      "stateMutability": "nonpayable",
      "type": "function"
    },
    {
      "inputs": [],
      "name": "withdrawBalance",
      "outputs": [],
      "stateMutability": "nonpayable",
      "type": "function"
    }
  ],
  "bytecode": "0x6080604052666a94d74f430000600455600060055534801561002057600080fd5b50600160008190555033600360006101000a81548173ffffffffffffffffffffffffffffffffffffffff021916908373ffffffffffffffffffffffffffffffffffffffff160217905550612ab4806100796000396000f3fe6080604052600436106100915760003560e01c80635fd8c710116100595780635fd8c7101461015e578063c23b139e14610175578063e61a70c014610191578063f064c32e146101d7578063f2fde38b1461020257610091565b80630f08efe01461009657806312e85585146100c15780631592277b146100ec578063202e37401461010857806334a7f19314610133575b600080fd5b3480156100a257600080fd5b506100ab61023f565b6040516100b89190611fe0565b60405180910390f35b3480156100cd57600080fd5b506100d6610641565b6040516100e39190612011565b60405180910390f35b610106600480360381019061010191906121cd565b61064b565b005b34801561011457600080fd5b5061011d610a18565b60405161012a9190611fe0565b60405180910390f35b34801561013f57600080fd5b50610148610ea7565b6040516101559190612011565b60405180910390f35b34801561016a57600080fd5b50610173610ead565b005b61018f600480360381019061018a9190612292565b611014565b005b34801561019d57600080fd5b506101b860048036038101906101b391906122d2565b611359565b6040516101ce9a99989796959493929190612376565b60405180910390f35b3480156101e357600080fd5b506101ec61152a565b6040516101f99190611fe0565b60405180910390f35b34801561020e57600080fd5b5061022960048036038101906102249190612420565b6119b9565b604051610236919061244d565b60405180910390f35b60606000600154905060006102546002611bb0565b8261025f9190612497565b90506000808267ffffffffffffffff81111561027e5761027d6120a2565b5b6040519080825280602002602001820160405280156102b757816020015b6102a4611bd4565b81526020019060019003908161029c5790505b5090506000600190505b84811161063657600073ffffffffffffffffffffffffffffffffffffffff16600660006001846102f191906124cb565b815260200190815260200160002060040160009054906101000a900473ffffffffffffffffffffffffffffffffffffffff1673ffffffffffffffffffffffffffffffffffffffff1614156106235760006006600060018461035291906124cb565b815260200190815260200160002060000154905060006006600083815260200190815260200160002090508060405180610140016040529081600082015481526020016001820160009054906101000a900473ffffffffffffffffffffffffffffffffffffffff1673ffffffffffffffffffffffffffffffffffffffff1673ffffffffffffffffffffffffffffffffffffffff168152602001600282015481526020016003820160009054906101000a900473ffffffffffffffffffffffffffffffffffffffff1673ffffffffffffffffffffffffffffffffffffffff1673ffffffffffffffffffffffffffffffffffffffff1681526020016004820160009054906101000a900473ffffffffffffffffffffffffffffffffffffffff1673ffffffffffffffffffffffffffffffffffffffff1673ffffffffffffffffffffffffffffffffffffffff168152602001600582015481526020016006820160009054906101000a900460ff161515151581526020016007820180546104d590612550565b80601f016020809104026020016040519081016040528092919081815260200182805461050190612550565b801561054e5780601f106105235761010080835404028352916020019161054e565b820191906000526020600020905b81548152906001019060200180831161053157829003601f168201915b5050505050815260200160088201805461056790612550565b80601f016020809104026020016040519081016040528092919081815260200182805461059390612550565b80156105e05780601f106105b5576101008083540402835291602001916105e0565b820191906000526020600020905b8154815290600101906020018083116105c357829003601f168201915b5050505050815260200160098201548152505084838151811061060657610605612582565b5b602002602001018190525060018561061e91906124cb565b945050505b808061062e906125b1565b9150506102c1565b508094505050505090565b6000600454905090565b60026000541415610691576040517f08c379a000000000000000000000000000000000000000000000000000000000815260040161068890612646565b60405180910390fd5b6002600081905550600084116106dc576040517f08c379a00000000000000000000000000000000000000000000000000000000081526004016106d3906126b2565b60405180910390fd5b6004543414610720576040517f08c379a000000000000000000000000000000000000000000000000000000000815260040161071790612744565b60405180910390fd5b8573ffffffffffffffffffffffffffffffffffffffff166323b872dd3330886040518463ffffffff1660e01b815260040161075d93929190612764565b600060405180830381600087803b15801561077757600080fd5b505af115801561078b573d6000803e3d6000fd5b50505050600160008154809291906107a2906125b1565b9190505550600060015490506040518061014001604052808281526020018873ffffffffffffffffffffffffffffffffffffffff1681526020018781526020013373ffffffffffffffffffffffffffffffffffffffff168152602001600073ffffffffffffffffffffffffffffffffffffffff16815260200186815260200160001515815260200185815260200184815260200183815250600660008381526020019081526020016000206000820151816000015560208201518160010160006101000a81548173ffffffffffffffffffffffffffffffffffffffff021916908373ffffffffffffffffffffffffffffffffffffffff1602179055506040820151816002015560608201518160030160006101000a81548173ffffffffffffffffffffffffffffffffffffffff021916908373ffffffffffffffffffffffffffffffffffffffff16021790555060808201518160040160006101000a81548173ffffffffffffffffffffffffffffffffffffffff021916908373ffffffffffffffffffffffffffffffffffffffff16021790555060a0820151816005015560c08201518160060160006101000a81548160ff02191690831515021790555060e082015181600701908051906020019061097c929190611c6b565b5061010082015181600801908051906020019061099a929190611c6b565b506101208201518160090155905050858773ffffffffffffffffffffffffffffffffffffffff16827f395cacecb2b74e684165508456b91ddcbc8607cc7581bab2c89559ba7b11b1cf3360008a60008b8b8b6040516109ff979695949392919061279b565b60405180910390a4506001600081905550505050505050565b6060600060015490506000806000600190505b838111610acb573373ffffffffffffffffffffffffffffffffffffffff1660066000600184610a5a91906124cb565b815260200190815260200160002060040160009054906101000a900473ffffffffffffffffffffffffffffffffffffffff1673ffffffffffffffffffffffffffffffffffffffff161415610ab857600183610ab591906124cb565b92505b8080610ac3906125b1565b915050610a2b565b5060008367ffffffffffffffff811115610ae857610ae76120a2565b5b604051908082528060200260200182016040528015610b2157816020015b610b0e611bd4565b815260200190600190039081610b065790505b50905060005b84811015610e9c573373ffffffffffffffffffffffffffffffffffffffff1660066000600184610b5791906124cb565b815260200190815260200160002060040160009054906101000a900473ffffffffffffffffffffffffffffffffffffffff1673ffffffffffffffffffffffffffffffffffffffff161415610e8957600060066000600184610bb891906124cb565b815260200190815260200160002060000154905060006006600083815260200190815260200160002090508060405180610140016040529081600082015481526020016001820160009054906101000a900473ffffffffffffffffffffffffffffffffffffffff1673ffffffffffffffffffffffffffffffffffffffff1673ffffffffffffffffffffffffffffffffffffffff168152602001600282015481526020016003820160009054906101000a900473ffffffffffffffffffffffffffffffffffffffff1673ffffffffffffffffffffffffffffffffffffffff1673ffffffffffffffffffffffffffffffffffffffff1681526020016004820160009054906101000a900473ffffffffffffffffffffffffffffffffffffffff1673ffffffffffffffffffffffffffffffffffffffff1673ffffffffffffffffffffffffffffffffffffffff168152602001600582015481526020016006820160009054906101000a900460ff16151515158152602001600782018054610d3b90612550565b80601f0160208091040260200160405190810160405280929190818152602001828054610d6790612550565b8015610db45780601f10610d8957610100808354040283529160200191610db4565b820191906000526020600020905b815481529060010190602001808311610d9757829003601f168201915b50505050508152602001600882018054610dcd90612550565b80601f0160208091040260200160405190810160405280929190818152602001828054610df990612550565b8015610e465780601f10610e1b57610100808354040283529160200191610e46565b820191906000526020600020905b815481529060010190602001808311610e2957829003601f168201915b50505050508152602001600982015481525050848381518110610e6c57610e6b612582565b5b6020026020010181905250600185610e8491906124cb565b945050505b8080610e94906125b1565b915050610b27565b508094505050505090565b60015481565b600360009054906101000a900473ffffffffffffffffffffffffffffffffffffffff1673ffffffffffffffffffffffffffffffffffffffff163373ffffffffffffffffffffffffffffffffffffffff1614610f3d576040517f08c379a0000000000000000000000000000000000000000000000000000000008152600401610f349061288a565b60405180910390fd5b600060055411610f82576040517f08c379a0000000000000000000000000000000000000000000000000000000008152600401610f799061291c565b60405180910390fd5b600060055490503373ffffffffffffffffffffffffffffffffffffffff166108fc829081150290604051600060405180830381858888f19350505050158015610fcf573d6000803e3d6000fd5b5060006005819055507fddc398b321237a8d40ac914388309c2f52a08c134e4dc4ce61e32f57cb7d80f1338260405161100992919061293c565b60405180910390a150565b6002600054141561105a576040517f08c379a000000000000000000000000000000000000000000000000000000000815260040161105190612646565b60405180910390fd5b60026000819055506000600660008381526020019081526020016000206005015490506000600660008481526020019081526020016000206000015490508134146110da576040517f08c379a00000000000000000000000000000000000000000000000000000000081526004016110d1906129d7565b60405180910390fd5b3373ffffffffffffffffffffffffffffffffffffffff166006600085815260200190815260200160002060040160009054906101000a900473ffffffffffffffffffffffffffffffffffffffff1673ffffffffffffffffffffffffffffffffffffffff16141561117f576040517f08c379a000000000000000000000000000000000000000000000000000000000815260040161117690612a43565b60405180910390fd5b6006600084815260200190815260200160002060030160009054906101000a900473ffffffffffffffffffffffffffffffffffffffff1673ffffffffffffffffffffffffffffffffffffffff166108fc349081150290604051600060405180830381858888f193505050501580156111fb573d6000803e3d6000fd5b508373ffffffffffffffffffffffffffffffffffffffff166342842e0e3033846040518463ffffffff1660e01b815260040161123993929190612764565b600060405180830381600087803b15801561125357600080fd5b505af1158015611267573d6000803e3d6000fd5b50505050336006600085815260200190815260200160002060040160006101000a81548173ffffffffffffffffffffffffffffffffffffffff021916908373ffffffffffffffffffffffffffffffffffffffff16021790555060016006600085815260200190815260200160002060060160006101000a81548160ff021916908315150217905550346005600082825461130191906124cb565b925050819055506113126002611bbe565b80837f18ea31d45b430c5a6a343a2912f8b8510eedd2f3f655126496535893b3bc9a5a336040516113439190612a63565b60405180910390a3505060016000819055505050565b60066020528060005260406000206000915090508060000154908060010160009054906101000a900473ffffffffffffffffffffffffffffffffffffffff16908060020154908060030160009054906101000a900473ffffffffffffffffffffffffffffffffffffffff16908060040160009054906101000a900473ffffffffffffffffffffffffffffffffffffffff16908060050154908060060160009054906101000a900460ff169080600701805461141390612550565b80601f016020809104026020016040519081016040528092919081815260200182805461143f90612550565b801561148c5780601f106114615761010080835404028352916020019161148c565b820191906000526020600020905b81548152906001019060200180831161146f57829003601f168201915b5050505050908060080180546114a190612550565b80601f01602080910402602001604051908101604052809291908181526020018280546114cd90612550565b801561151a5780601f106114ef5761010080835404028352916020019161151a565b820191906000526020600020905b8154815290600101906020018083116114fd57829003601f168201915b505050505090806009015490508a565b6060600060015490506000806000600190505b8381116115dd573373ffffffffffffffffffffffffffffffffffffffff166006600060018461156c91906124cb565b815260200190815260200160002060030160009054906101000a900473ffffffffffffffffffffffffffffffffffffffff1673ffffffffffffffffffffffffffffffffffffffff1614156115ca576001836115c791906124cb565b92505b80806115d5906125b1565b91505061153d565b5060008367ffffffffffffffff8111156115fa576115f96120a2565b5b60405190808252806020026020018201604052801561163357816020015b611620611bd4565b8152602001906001900390816116185790505b50905060005b848110156119ae573373ffffffffffffffffffffffffffffffffffffffff166006600060018461166991906124cb565b815260200190815260200160002060030160009054906101000a900473ffffffffffffffffffffffffffffffffffffffff1673ffffffffffffffffffffffffffffffffffffffff16141561199b576000600660006001846116ca91906124cb565b815260200190815260200160002060000154905060006006600083815260200190815260200160002090508060405180610140016040529081600082015481526020016001820160009054906101000a900473ffffffffffffffffffffffffffffffffffffffff1673ffffffffffffffffffffffffffffffffffffffff1673ffffffffffffffffffffffffffffffffffffffff168152602001600282015481526020016003820160009054906101000a900473ffffffffffffffffffffffffffffffffffffffff1673ffffffffffffffffffffffffffffffffffffffff1673ffffffffffffffffffffffffffffffffffffffff1681526020016004820160009054906101000a900473ffffffffffffffffffffffffffffffffffffffff1673ffffffffffffffffffffffffffffffffffffffff1673ffffffffffffffffffffffffffffffffffffffff168152602001600582015481526020016006820160009054906101000a900460ff1615151515815260200160078201805461184d90612550565b80601f016020809104026020016040519081016040528092919081815260200182805461187990612550565b80156118c65780601f1061189b576101008083540402835291602001916118c6565b820191906000526020600020905b8154815290600101906020018083116118a957829003601f168201915b505050505081526020016008820180546118df90612550565b80601f016020809104026020016040519081016040528092919081815260200182805461190b90612550565b80156119585780601f1061192d57610100808354040283529160200191611958565b820191906000526020600020905b81548152906001019060200180831161193b57829003601f168201915b5050505050815260200160098201548152505084838151811061197e5761197d612582565b5b602002602001018190525060018561199691906124cb565b945050505b80806119a6906125b1565b915050611639565b508094505050505090565b6000600360009054906101000a900473ffffffffffffffffffffffffffffffffffffffff1673ffffffffffffffffffffffffffffffffffffffff163373ffffffffffffffffffffffffffffffffffffffff1614611a4b576040517f08c379a0000000000000000000000000000000000000000000000000000000008152600401611a429061288a565b60405180910390fd5b6000600154905082600360006101000a81548173ffffffffffffffffffffffffffffffffffffffff021916908373ffffffffffffffffffffffffffffffffffffffff16021790555060005b81811015611ba5573373ffffffffffffffffffffffffffffffffffffffff1660066000600184611ac691906124cb565b815260200190815260200160002060040160009054906101000a900473ffffffffffffffffffffffffffffffffffffffff1673ffffffffffffffffffffffffffffffffffffffff161415611b9257600060066000600184611b2791906124cb565b8152602001908152602001600020600001549050846006600083815260200190815260200160002060040160006101000a81548173ffffffffffffffffffffffffffffffffffffffff021916908373ffffffffffffffffffffffffffffffffffffffff160217905550505b8080611b9d906125b1565b915050611a96565b506001915050919050565b600081600001549050919050565b6001816000016000828254019250508190555050565b60405180610140016040528060008152602001600073ffffffffffffffffffffffffffffffffffffffff16815260200160008152602001600073ffffffffffffffffffffffffffffffffffffffff168152602001600073ffffffffffffffffffffffffffffffffffffffff168152602001600081526020016000151581526020016060815260200160608152602001600081525090565b828054611c7790612550565b90600052602060002090601f016020900481019282611c995760008555611ce0565b82601f10611cb257805160ff1916838001178555611ce0565b82800160010185558215611ce0579182015b82811115611cdf578251825591602001919060010190611cc4565b5b509050611ced9190611cf1565b5090565b5b80821115611d0a576000816000905550600101611cf2565b5090565b600081519050919050565b600082825260208201905092915050565b6000819050602082019050919050565b6000819050919050565b611d4d81611d3a565b82525050565b600073ffffffffffffffffffffffffffffffffffffffff82169050919050565b6000611d7e82611d53565b9050919050565b611d8e81611d73565b82525050565b6000611d9f82611d53565b9050919050565b611daf81611d94565b82525050565b60008115159050919050565b611dca81611db5565b82525050565b600081519050919050565b600082825260208201905092915050565b60005b83811015611e0a578082015181840152602081019050611def565b83811115611e19576000848401525b50505050565b6000601f19601f8301169050919050565b6000611e3b82611dd0565b611e458185611ddb565b9350611e55818560208601611dec565b611e5e81611e1f565b840191505092915050565b600061014083016000830151611e826000860182611d44565b506020830151611e956020860182611d85565b506040830151611ea86040860182611d44565b506060830151611ebb6060860182611da6565b506080830151611ece6080860182611da6565b5060a0830151611ee160a0860182611d44565b5060c0830151611ef460c0860182611dc1565b5060e083015184820360e0860152611f0c8282611e30565b915050610100830151848203610100860152611f288282611e30565b915050610120830151611f3f610120860182611d44565b508091505092915050565b6000611f568383611e69565b905092915050565b6000602082019050919050565b6000611f7682611d0e565b611f808185611d19565b935083602082028501611f9285611d2a565b8060005b85811015611fce5784840389528151611faf8582611f4a565b9450611fba83611f5e565b925060208a01995050600181019050611f96565b50829750879550505050505092915050565b60006020820190508181036000830152611ffa8184611f6b565b905092915050565b61200b81611d3a565b82525050565b60006020820190506120266000830184612002565b92915050565b6000604051905090565b600080fd5b600080fd5b61204981611d73565b811461205457600080fd5b50565b60008135905061206681612040565b92915050565b61207581611d3a565b811461208057600080fd5b50565b6000813590506120928161206c565b92915050565b600080fd5b600080fd5b7f4e487b7100000000000000000000000000000000000000000000000000000000600052604160045260246000fd5b6120da82611e1f565b810181811067ffffffffffffffff821117156120f9576120f86120a2565b5b80604052505050565b600061210c61202c565b905061211882826120d1565b919050565b600067ffffffffffffffff821115612138576121376120a2565b5b61214182611e1f565b9050602081019050919050565b82818337600083830152505050565b600061217061216b8461211d565b612102565b90508281526020810184848401111561218c5761218b61209d565b5b61219784828561214e565b509392505050565b600082601f8301126121b4576121b3612098565b5b81356121c484826020860161215d565b91505092915050565b60008060008060008060c087890312156121ea576121e9612036565b5b60006121f889828a01612057565b965050602061220989828a01612083565b955050604061221a89828a01612083565b945050606087013567ffffffffffffffff81111561223b5761223a61203b565b5b61224789828a0161219f565b935050608087013567ffffffffffffffff8111156122685761226761203b565b5b61227489828a0161219f565b92505060a061228589828a01612083565b9150509295509295509295565b600080604083850312156122a9576122a8612036565b5b60006122b785828601612057565b92505060206122c885828601612083565b9150509250929050565b6000602082840312156122e8576122e7612036565b5b60006122f684828501612083565b91505092915050565b61230881611d73565b82525050565b61231781611d94565b82525050565b61232681611db5565b82525050565b600082825260208201905092915050565b600061234882611dd0565b612352818561232c565b9350612362818560208601611dec565b61236b81611e1f565b840191505092915050565b60006101408201905061238c600083018d612002565b612399602083018c6122ff565b6123a6604083018b612002565b6123b3606083018a61230e565b6123c0608083018961230e565b6123cd60a0830188612002565b6123da60c083018761231d565b81810360e08301526123ec818661233d565b9050818103610100830152612401818561233d565b9050612411610120830184612002565b9b9a5050505050505050505050565b60006020828403121561243657612435612036565b5b600061244484828501612057565b91505092915050565b6000602082019050612462600083018461231d565b92915050565b7f4e487b7100000000000000000000000000000000000000000000000000000000600052601160045260246000fd5b60006124a282611d3a565b91506124ad83611d3a565b9250828210156124c0576124bf612468565b5b828203905092915050565b60006124d682611d3a565b91506124e183611d3a565b9250827fffffffffffffffffffffffffffffffffffffffffffffffffffffffffffffffff0382111561251657612515612468565b5b828201905092915050565b7f4e487b7100000000000000000000000000000000000000000000000000000000600052602260045260246000fd5b6000600282049050600182168061256857607f821691505b6020821081141561257c5761257b612521565b5b50919050565b7f4e487b7100000000000000000000000000000000000000000000000000000000600052603260045260246000fd5b60006125bc82611d3a565b91507fffffffffffffffffffffffffffffffffffffffffffffffffffffffffffffffff8214156125ef576125ee612468565b5b600182019050919050565b7f5265656e7472616e637947756172643a207265656e7472616e742063616c6c00600082015250565b6000612630601f8361232c565b915061263b826125fa565b602082019050919050565b6000602082019050818103600083015261265f81612623565b9050919050565b7f5072696365206d757374206265206174206c6561737420312077656900000000600082015250565b600061269c601c8361232c565b91506126a782612666565b602082019050919050565b600060208201905081810360008301526126cb8161268f565b9050919050565b7f5072696365206d75737420626520657175616c20746f20746865206c6973746960008201527f6e67207072696365000000000000000000000000000000000000000000000000602082015250565b600061272e60288361232c565b9150612739826126d2565b604082019050919050565b6000602082019050818103600083015261275d81612721565b9050919050565b600060608201905061277960008301866122ff565b61278660208301856122ff565b6127936040830184612002565b949350505050565b600060e0820190506127b0600083018a61230e565b6127bd602083018961230e565b6127ca6040830188612002565b6127d7606083018761231d565b81810360808301526127e9818661233d565b905081810360a08301526127fd818561233d565b905061280c60c0830184612002565b98975050505050505050565b7f4f6e6c79206f776e65722063616e20706572666f726d2074686973206163746960008201527f6f6e000000000000000000000000000000000000000000000000000000000000602082015250565b600061287460228361232c565b915061287f82612818565b604082019050919050565b600060208201905081810360008301526128a381612867565b9050919050565b7f596f7520646f6e2774206861766520656e6f7567682066756e647320746f207760008201527f6974686472617700000000000000000000000000000000000000000000000000602082015250565b600061290660278361232c565b9150612911826128aa565b604082019050919050565b60006020820190508181036000830152612935816128f9565b9050919050565b600060408201905061295160008301856122ff565b61295e6020830184612002565b9392505050565b7f5375626d6974207468652061736b696e6720707269636520696e206f7264657260008201527f20746f20636f6d706c6574652074686520707572636861736500000000000000602082015250565b60006129c160398361232c565b91506129cc82612965565b604082019050919050565b600060208201905081810360008301526129f0816129b4565b9050919050565b7f596f752063616e27742062757920796f7572206f776e204e4654000000000000600082015250565b6000612a2d601a8361232c565b9150612a38826129f7565b602082019050919050565b60006020820190508181036000830152612a5c81612a20565b9050919050565b6000602082019050612a78600083018461230e565b9291505056fea26469706673582212203796e023027664e06a26b7f72a86cdd35626cef4ee4f265a8276477bd8b1247464736f6c634300080b0033",
  "linkReferences": {},
  "deployedLinkReferences": {}
}