{
  "_format": "hh-sol-artifact-1",
  "contractName": "NFTMarket",
  "sourceName": "contracts/NFTMarket.sol",
  "abi": [
    {
      "inputs": [],
      "stateMutability": "nonpayable",
      "type": "constructor"
    },
    {
      "anonymous": false,
      "inputs": [
        {
          "indexed": false,
          "internalType": "address",
          "name": "user",
          "type": "address"
        },
        {
          "indexed": false,
          "internalType": "uint256",
          "name": "_balance",
          "type": "uint256"
        }
      ],
      "name": "BalanceWithdrawn",
      "type": "event"
    },
    {
      "anonymous": false,
      "inputs": [
        {
          "indexed": true,
          "internalType": "uint256",
          "name": "itemId",
          "type": "uint256"
        },
        {
          "indexed": true,
          "internalType": "address",
          "name": "nftContractAddress",
          "type": "address"
        },
        {
          "indexed": true,
          "internalType": "uint256",
          "name": "tokenId",
          "type": "uint256"
        },
        {
          "indexed": false,
          "internalType": "address payable",
          "name": "seller",
          "type": "address"
        },
        {
          "indexed": false,
          "internalType": "address payable",
          "name": "owner",
          "type": "address"
        },
        {
          "indexed": false,
          "internalType": "uint256",
          "name": "price",
          "type": "uint256"
        },
        {
          "indexed": false,
          "internalType": "uint256",
          "name": "createdAt",
          "type": "uint256"
        },
        {
          "indexed": false,
          "internalType": "bool",
          "name": "sold",
          "type": "bool"
        }
      ],
      "name": "MarketItemCreated",
      "type": "event"
    },
    {
      "anonymous": false,
      "inputs": [
        {
          "indexed": true,
          "internalType": "uint256",
          "name": "itemId",
          "type": "uint256"
        },
        {
          "indexed": true,
          "internalType": "uint256",
          "name": "tokenId",
          "type": "uint256"
        },
        {
          "indexed": false,
          "internalType": "address payable",
          "name": "sellers",
          "type": "address"
        }
      ],
      "name": "MarketItemSold",
      "type": "event"
    },
    {
      "inputs": [],
      "name": "_itemIds",
      "outputs": [
        {
          "internalType": "uint256",
          "name": "",
          "type": "uint256"
        }
      ],
      "stateMutability": "view",
      "type": "function"
    },
    {
      "inputs": [
        {
          "internalType": "address",
          "name": "nftContractAddress",
          "type": "address"
        },
        {
          "internalType": "uint256",
          "name": "tokenId",
          "type": "uint256"
        },
        {
          "internalType": "uint256",
          "name": "price",
          "type": "uint256"
        }
      ],
      "name": "createMarketItem",
      "outputs": [],
      "stateMutability": "payable",
      "type": "function"
    },
    {
      "inputs": [
        {
          "internalType": "address",
          "name": "nftContractAddress",
          "type": "address"
        },
        {
          "internalType": "uint256",
          "name": "itemId",
          "type": "uint256"
        }
      ],
      "name": "createMarketSale",
      "outputs": [],
      "stateMutability": "payable",
      "type": "function"
    },
    {
      "inputs": [],
      "name": "fetchItemsCreated",
      "outputs": [
        {
          "components": [
            {
              "internalType": "uint256",
              "name": "itemId",
              "type": "uint256"
            },
            {
              "internalType": "address",
              "name": "nftContractAddress",
              "type": "address"
            },
            {
              "internalType": "uint256",
              "name": "tokenId",
              "type": "uint256"
            },
            {
              "internalType": "address payable",
              "name": "seller",
              "type": "address"
            },
            {
              "internalType": "address payable",
              "name": "owner",
              "type": "address"
            },
            {
              "internalType": "uint256",
              "name": "price",
              "type": "uint256"
            },
            {
              "internalType": "uint256",
              "name": "createdAt",
              "type": "uint256"
            },
            {
              "internalType": "bool",
              "name": "sold",
              "type": "bool"
            }
          ],
          "internalType": "struct NFTMarket.MarketItem[]",
          "name": "",
          "type": "tuple[]"
        }
      ],
      "stateMutability": "view",
      "type": "function"
    },
    {
      "inputs": [],
      "name": "fetchMarketItems",
      "outputs": [
        {
          "components": [
            {
              "internalType": "uint256",
              "name": "itemId",
              "type": "uint256"
            },
            {
              "internalType": "address",
              "name": "nftContractAddress",
              "type": "address"
            },
            {
              "internalType": "uint256",
              "name": "tokenId",
              "type": "uint256"
            },
            {
              "internalType": "address payable",
              "name": "seller",
              "type": "address"
            },
            {
              "internalType": "address payable",
              "name": "owner",
              "type": "address"
            },
            {
              "internalType": "uint256",
              "name": "price",
              "type": "uint256"
            },
            {
              "internalType": "uint256",
              "name": "createdAt",
              "type": "uint256"
            },
            {
              "internalType": "bool",
              "name": "sold",
              "type": "bool"
            }
          ],
          "internalType": "struct NFTMarket.MarketItem[]",
          "name": "",
          "type": "tuple[]"
        }
      ],
      "stateMutability": "view",
      "type": "function"
    },
    {
      "inputs": [],
      "name": "fetchMyNFTs",
      "outputs": [
        {
          "components": [
            {
              "internalType": "uint256",
              "name": "itemId",
              "type": "uint256"
            },
            {
              "internalType": "address",
              "name": "nftContractAddress",
              "type": "address"
            },
            {
              "internalType": "uint256",
              "name": "tokenId",
              "type": "uint256"
            },
            {
              "internalType": "address payable",
              "name": "seller",
              "type": "address"
            },
            {
              "internalType": "address payable",
              "name": "owner",
              "type": "address"
            },
            {
              "internalType": "uint256",
              "name": "price",
              "type": "uint256"
            },
            {
              "internalType": "uint256",
              "name": "createdAt",
              "type": "uint256"
            },
            {
              "internalType": "bool",
              "name": "sold",
              "type": "bool"
            }
          ],
          "internalType": "struct NFTMarket.MarketItem[]",
          "name": "",
          "type": "tuple[]"
        }
      ],
      "stateMutability": "view",
      "type": "function"
    },
    {
      "inputs": [],
      "name": "getListingPrice",
      "outputs": [
        {
          "internalType": "uint256",
          "name": "_listingPrice",
          "type": "uint256"
        }
      ],
      "stateMutability": "view",
      "type": "function"
    },
    {
      "inputs": [
        {
          "internalType": "uint256",
          "name": "",
          "type": "uint256"
        }
      ],
      "name": "idToMarketItem",
      "outputs": [
        {
          "internalType": "uint256",
          "name": "itemId",
          "type": "uint256"
        },
        {
          "internalType": "address",
          "name": "nftContractAddress",
          "type": "address"
        },
        {
          "internalType": "uint256",
          "name": "tokenId",
          "type": "uint256"
        },
        {
          "internalType": "address payable",
          "name": "seller",
          "type": "address"
        },
        {
          "internalType": "address payable",
          "name": "owner",
          "type": "address"
        },
        {
          "internalType": "uint256",
          "name": "price",
          "type": "uint256"
        },
        {
          "internalType": "uint256",
          "name": "createdAt",
          "type": "uint256"
        },
        {
          "internalType": "bool",
          "name": "sold",
          "type": "bool"
        }
      ],
      "stateMutability": "view",
      "type": "function"
    },
    {
      "inputs": [
        {
          "internalType": "address",
          "name": "_newOwner",
          "type": "address"
        }
      ],
      "name": "transferOwnership",
      "outputs": [
        {
          "internalType": "bool",
          "name": "transferred",
          "type": "bool"
        }
      ],
      "stateMutability": "nonpayable",
      "type": "function"
    },
    {
      "inputs": [],
      "name": "withdrawBalance",
      "outputs": [],
      "stateMutability": "nonpayable",
      "type": "function"
    }
  ],
  "bytecode": "0x6080604052666a94d74f430000600455600060055534801561002057600080fd5b50600160008190555033600360006101000a81548173ffffffffffffffffffffffffffffffffffffffff021916908373ffffffffffffffffffffffffffffffffffffffff1602179055506121c9806100796000396000f3fe6080604052600436106100915760003560e01c80635fd8c710116100595780635fd8c7101461015e578063c23b139e14610175578063e61a70c014610191578063f064c32e146101d5578063f2fde38b1461020057610091565b80630f08efe01461009657806312e85585146100c1578063202e3740146100ec57806334a7f1931461011757806358eb2df514610142575b600080fd5b3480156100a257600080fd5b506100ab61023d565b6040516100b8919061196c565b60405180910390f35b3480156100cd57600080fd5b506100d661051b565b6040516100e3919061199d565b60405180910390f35b3480156100f857600080fd5b50610101610525565b60405161010e919061196c565b60405180910390f35b34801561012357600080fd5b5061012c610890565b604051610139919061199d565b60405180910390f35b61015c60048036038101906101579190611a15565b610896565b005b34801561016a57600080fd5b50610173610c14565b005b61018f600480360381019061018a9190611a68565b610d7b565b005b34801561019d57600080fd5b506101b860048036038101906101b39190611aa8565b6110c0565b6040516101cc989796959493929190611b02565b60405180910390f35b3480156101e157600080fd5b506101ea611175565b6040516101f7919061196c565b60405180910390f35b34801561020c57600080fd5b5061022760048036038101906102229190611b80565b6114e0565b6040516102349190611bad565b60405180910390f35b606060006001549050600061025260026116d7565b8261025d9190611bf7565b90506000808267ffffffffffffffff81111561027c5761027b611c2b565b5b6040519080825280602002602001820160405280156102b557816020015b6102a26116fb565b81526020019060019003908161029a5790505b5090506000600190505b84811161051057600073ffffffffffffffffffffffffffffffffffffffff16600660006001846102ef9190611c5a565b815260200190815260200160002060040160009054906101000a900473ffffffffffffffffffffffffffffffffffffffff1673ffffffffffffffffffffffffffffffffffffffff1614156104fd576000600660006001846103509190611c5a565b815260200190815260200160002060000154905060006006600083815260200190815260200160002090508060405180610100016040529081600082015481526020016001820160009054906101000a900473ffffffffffffffffffffffffffffffffffffffff1673ffffffffffffffffffffffffffffffffffffffff1673ffffffffffffffffffffffffffffffffffffffff168152602001600282015481526020016003820160009054906101000a900473ffffffffffffffffffffffffffffffffffffffff1673ffffffffffffffffffffffffffffffffffffffff1673ffffffffffffffffffffffffffffffffffffffff1681526020016004820160009054906101000a900473ffffffffffffffffffffffffffffffffffffffff1673ffffffffffffffffffffffffffffffffffffffff1673ffffffffffffffffffffffffffffffffffffffff16815260200160058201548152602001600682015481526020016007820160009054906101000a900460ff1615151515815250508483815181106104e0576104df611cb0565b5b60200260200101819052506001856104f89190611c5a565b945050505b808061050890611cdf565b9150506102bf565b508094505050505090565b6000600454905090565b6060600060015490506000806000600190505b8381116105d8573373ffffffffffffffffffffffffffffffffffffffff16600660006001846105679190611c5a565b815260200190815260200160002060040160009054906101000a900473ffffffffffffffffffffffffffffffffffffffff1673ffffffffffffffffffffffffffffffffffffffff1614156105c5576001836105c29190611c5a565b92505b80806105d090611cdf565b915050610538565b5060008367ffffffffffffffff8111156105f5576105f4611c2b565b5b60405190808252806020026020018201604052801561062e57816020015b61061b6116fb565b8152602001906001900390816106135790505b50905060005b84811015610885573373ffffffffffffffffffffffffffffffffffffffff16600660006001846106649190611c5a565b815260200190815260200160002060040160009054906101000a900473ffffffffffffffffffffffffffffffffffffffff1673ffffffffffffffffffffffffffffffffffffffff161415610872576000600660006001846106c59190611c5a565b815260200190815260200160002060000154905060006006600083815260200190815260200160002090508060405180610100016040529081600082015481526020016001820160009054906101000a900473ffffffffffffffffffffffffffffffffffffffff1673ffffffffffffffffffffffffffffffffffffffff1673ffffffffffffffffffffffffffffffffffffffff168152602001600282015481526020016003820160009054906101000a900473ffffffffffffffffffffffffffffffffffffffff1673ffffffffffffffffffffffffffffffffffffffff1673ffffffffffffffffffffffffffffffffffffffff1681526020016004820160009054906101000a900473ffffffffffffffffffffffffffffffffffffffff1673ffffffffffffffffffffffffffffffffffffffff1673ffffffffffffffffffffffffffffffffffffffff16815260200160058201548152602001600682015481526020016007820160009054906101000a900460ff16151515158152505084838151811061085557610854611cb0565b5b602002602001018190525060018561086d9190611c5a565b945050505b808061087d90611cdf565b915050610634565b508094505050505090565b60015481565b600260005414156108dc576040517f08c379a00000000000000000000000000000000000000000000000000000000081526004016108d390611d85565b60405180910390fd5b600260008190555060008111610927576040517f08c379a000000000000000000000000000000000000000000000000000000000815260040161091e90611df1565b60405180910390fd5b600454341461096b576040517f08c379a000000000000000000000000000000000000000000000000000000000815260040161096290611e83565b60405180910390fd5b6001600081548092919061097e90611cdf565b9190505550600060015490506040518061010001604052808281526020018573ffffffffffffffffffffffffffffffffffffffff1681526020018481526020013373ffffffffffffffffffffffffffffffffffffffff168152602001600073ffffffffffffffffffffffffffffffffffffffff16815260200183815260200142815260200160001515815250600660008381526020019081526020016000206000820151816000015560208201518160010160006101000a81548173ffffffffffffffffffffffffffffffffffffffff021916908373ffffffffffffffffffffffffffffffffffffffff1602179055506040820151816002015560608201518160030160006101000a81548173ffffffffffffffffffffffffffffffffffffffff021916908373ffffffffffffffffffffffffffffffffffffffff16021790555060808201518160040160006101000a81548173ffffffffffffffffffffffffffffffffffffffff021916908373ffffffffffffffffffffffffffffffffffffffff16021790555060a0820151816005015560c0820151816006015560e08201518160070160006101000a81548160ff0219169083151502179055509050508373ffffffffffffffffffffffffffffffffffffffff166323b872dd3330866040518463ffffffff1660e01b8152600401610b7a93929190611ea3565b600060405180830381600087803b158015610b9457600080fd5b505af1158015610ba8573d6000803e3d6000fd5b50505050828473ffffffffffffffffffffffffffffffffffffffff16827fd0bb1eaea8ab6cd0c288f209757734c5e280d8f4e05f93b1db82da8db727875833600087426000604051610bfe959493929190611eda565b60405180910390a4506001600081905550505050565b600360009054906101000a900473ffffffffffffffffffffffffffffffffffffffff1673ffffffffffffffffffffffffffffffffffffffff163373ffffffffffffffffffffffffffffffffffffffff1614610ca4576040517f08c379a0000000000000000000000000000000000000000000000000000000008152600401610c9b90611f9f565b60405180910390fd5b600060055411610ce9576040517f08c379a0000000000000000000000000000000000000000000000000000000008152600401610ce090612031565b60405180910390fd5b600060055490503373ffffffffffffffffffffffffffffffffffffffff166108fc829081150290604051600060405180830381858888f19350505050158015610d36573d6000803e3d6000fd5b5060006005819055507fddc398b321237a8d40ac914388309c2f52a08c134e4dc4ce61e32f57cb7d80f13382604051610d70929190612051565b60405180910390a150565b60026000541415610dc1576040517f08c379a0000000000000000000000000000000000000000000000000000000008152600401610db890611d85565b60405180910390fd5b6002600081905550600060066000838152602001908152602001600020600501549050600060066000848152602001908152602001600020600001549050813414610e41576040517f08c379a0000000000000000000000000000000000000000000000000000000008152600401610e38906120ec565b60405180910390fd5b3373ffffffffffffffffffffffffffffffffffffffff166006600085815260200190815260200160002060040160009054906101000a900473ffffffffffffffffffffffffffffffffffffffff1673ffffffffffffffffffffffffffffffffffffffff161415610ee6576040517f08c379a0000000000000000000000000000000000000000000000000000000008152600401610edd90612158565b60405180910390fd5b6006600084815260200190815260200160002060030160009054906101000a900473ffffffffffffffffffffffffffffffffffffffff1673ffffffffffffffffffffffffffffffffffffffff166108fc349081150290604051600060405180830381858888f19350505050158015610f62573d6000803e3d6000fd5b508373ffffffffffffffffffffffffffffffffffffffff166342842e0e3033846040518463ffffffff1660e01b8152600401610fa093929190611ea3565b600060405180830381600087803b158015610fba57600080fd5b505af1158015610fce573d6000803e3d6000fd5b50505050336006600085815260200190815260200160002060040160006101000a81548173ffffffffffffffffffffffffffffffffffffffff021916908373ffffffffffffffffffffffffffffffffffffffff16021790555060016006600085815260200190815260200160002060070160006101000a81548160ff02191690831515021790555034600560008282546110689190611c5a565b9250508190555061107960026116e5565b80837f18ea31d45b430c5a6a343a2912f8b8510eedd2f3f655126496535893b3bc9a5a336040516110aa9190612178565b60405180910390a3505060016000819055505050565b60066020528060005260406000206000915090508060000154908060010160009054906101000a900473ffffffffffffffffffffffffffffffffffffffff16908060020154908060030160009054906101000a900473ffffffffffffffffffffffffffffffffffffffff16908060040160009054906101000a900473ffffffffffffffffffffffffffffffffffffffff16908060050154908060060154908060070160009054906101000a900460ff16905088565b6060600060015490506000806000600190505b838111611228573373ffffffffffffffffffffffffffffffffffffffff16600660006001846111b79190611c5a565b815260200190815260200160002060030160009054906101000a900473ffffffffffffffffffffffffffffffffffffffff1673ffffffffffffffffffffffffffffffffffffffff161415611215576001836112129190611c5a565b92505b808061122090611cdf565b915050611188565b5060008367ffffffffffffffff81111561124557611244611c2b565b5b60405190808252806020026020018201604052801561127e57816020015b61126b6116fb565b8152602001906001900390816112635790505b50905060005b848110156114d5573373ffffffffffffffffffffffffffffffffffffffff16600660006001846112b49190611c5a565b815260200190815260200160002060030160009054906101000a900473ffffffffffffffffffffffffffffffffffffffff1673ffffffffffffffffffffffffffffffffffffffff1614156114c2576000600660006001846113159190611c5a565b815260200190815260200160002060000154905060006006600083815260200190815260200160002090508060405180610100016040529081600082015481526020016001820160009054906101000a900473ffffffffffffffffffffffffffffffffffffffff1673ffffffffffffffffffffffffffffffffffffffff1673ffffffffffffffffffffffffffffffffffffffff168152602001600282015481526020016003820160009054906101000a900473ffffffffffffffffffffffffffffffffffffffff1673ffffffffffffffffffffffffffffffffffffffff1673ffffffffffffffffffffffffffffffffffffffff1681526020016004820160009054906101000a900473ffffffffffffffffffffffffffffffffffffffff1673ffffffffffffffffffffffffffffffffffffffff1673ffffffffffffffffffffffffffffffffffffffff16815260200160058201548152602001600682015481526020016007820160009054906101000a900460ff1615151515815250508483815181106114a5576114a4611cb0565b5b60200260200101819052506001856114bd9190611c5a565b945050505b80806114cd90611cdf565b915050611284565b508094505050505090565b6000600360009054906101000a900473ffffffffffffffffffffffffffffffffffffffff1673ffffffffffffffffffffffffffffffffffffffff163373ffffffffffffffffffffffffffffffffffffffff1614611572576040517f08c379a000000000000000000000000000000000000000000000000000000000815260040161156990611f9f565b60405180910390fd5b6000600154905082600360006101000a81548173ffffffffffffffffffffffffffffffffffffffff021916908373ffffffffffffffffffffffffffffffffffffffff16021790555060005b818110156116cc573373ffffffffffffffffffffffffffffffffffffffff16600660006001846115ed9190611c5a565b815260200190815260200160002060040160009054906101000a900473ffffffffffffffffffffffffffffffffffffffff1673ffffffffffffffffffffffffffffffffffffffff1614156116b95760006006600060018461164e9190611c5a565b8152602001908152602001600020600001549050846006600083815260200190815260200160002060040160006101000a81548173ffffffffffffffffffffffffffffffffffffffff021916908373ffffffffffffffffffffffffffffffffffffffff160217905550505b80806116c490611cdf565b9150506115bd565b506001915050919050565b600081600001549050919050565b6001816000016000828254019250508190555050565b60405180610100016040528060008152602001600073ffffffffffffffffffffffffffffffffffffffff16815260200160008152602001600073ffffffffffffffffffffffffffffffffffffffff168152602001600073ffffffffffffffffffffffffffffffffffffffff16815260200160008152602001600081526020016000151581525090565b600081519050919050565b600082825260208201905092915050565b6000819050602082019050919050565b6000819050919050565b6117c3816117b0565b82525050565b600073ffffffffffffffffffffffffffffffffffffffff82169050919050565b60006117f4826117c9565b9050919050565b611804816117e9565b82525050565b6000611815826117c9565b9050919050565b6118258161180a565b82525050565b60008115159050919050565b6118408161182b565b82525050565b6101008201600082015161185d60008501826117ba565b50602082015161187060208501826117fb565b50604082015161188360408501826117ba565b506060820151611896606085018261181c565b5060808201516118a9608085018261181c565b5060a08201516118bc60a08501826117ba565b5060c08201516118cf60c08501826117ba565b5060e08201516118e260e0850182611837565b50505050565b60006118f48383611846565b6101008301905092915050565b6000602082019050919050565b600061191982611784565b611923818561178f565b935061192e836117a0565b8060005b8381101561195f57815161194688826118e8565b975061195183611901565b925050600181019050611932565b5085935050505092915050565b60006020820190508181036000830152611986818461190e565b905092915050565b611997816117b0565b82525050565b60006020820190506119b2600083018461198e565b92915050565b600080fd5b6119c6816117e9565b81146119d157600080fd5b50565b6000813590506119e3816119bd565b92915050565b6119f2816117b0565b81146119fd57600080fd5b50565b600081359050611a0f816119e9565b92915050565b600080600060608486031215611a2e57611a2d6119b8565b5b6000611a3c868287016119d4565b9350506020611a4d86828701611a00565b9250506040611a5e86828701611a00565b9150509250925092565b60008060408385031215611a7f57611a7e6119b8565b5b6000611a8d858286016119d4565b9250506020611a9e85828601611a00565b9150509250929050565b600060208284031215611abe57611abd6119b8565b5b6000611acc84828501611a00565b91505092915050565b611ade816117e9565b82525050565b611aed8161180a565b82525050565b611afc8161182b565b82525050565b600061010082019050611b18600083018b61198e565b611b25602083018a611ad5565b611b32604083018961198e565b611b3f6060830188611ae4565b611b4c6080830187611ae4565b611b5960a083018661198e565b611b6660c083018561198e565b611b7360e0830184611af3565b9998505050505050505050565b600060208284031215611b9657611b956119b8565b5b6000611ba4848285016119d4565b91505092915050565b6000602082019050611bc26000830184611af3565b92915050565b7f4e487b7100000000000000000000000000000000000000000000000000000000600052601160045260246000fd5b6000611c02826117b0565b9150611c0d836117b0565b925082821015611c2057611c1f611bc8565b5b828203905092915050565b7f4e487b7100000000000000000000000000000000000000000000000000000000600052604160045260246000fd5b6000611c65826117b0565b9150611c70836117b0565b9250827fffffffffffffffffffffffffffffffffffffffffffffffffffffffffffffffff03821115611ca557611ca4611bc8565b5b828201905092915050565b7f4e487b7100000000000000000000000000000000000000000000000000000000600052603260045260246000fd5b6000611cea826117b0565b91507fffffffffffffffffffffffffffffffffffffffffffffffffffffffffffffffff821415611d1d57611d1c611bc8565b5b600182019050919050565b600082825260208201905092915050565b7f5265656e7472616e637947756172643a207265656e7472616e742063616c6c00600082015250565b6000611d6f601f83611d28565b9150611d7a82611d39565b602082019050919050565b60006020820190508181036000830152611d9e81611d62565b9050919050565b7f5072696365206d757374206265206174206c6561737420312077656900000000600082015250565b6000611ddb601c83611d28565b9150611de682611da5565b602082019050919050565b60006020820190508181036000830152611e0a81611dce565b9050919050565b7f5072696365206d75737420626520657175616c20746f20746865206c6973746960008201527f6e67207072696365000000000000000000000000000000000000000000000000602082015250565b6000611e6d602883611d28565b9150611e7882611e11565b604082019050919050565b60006020820190508181036000830152611e9c81611e60565b9050919050565b6000606082019050611eb86000830186611ad5565b611ec56020830185611ad5565b611ed2604083018461198e565b949350505050565b600060a082019050611eef6000830188611ae4565b611efc6020830187611ae4565b611f09604083018661198e565b611f16606083018561198e565b611f236080830184611af3565b9695505050505050565b7f4f6e6c79206f776e65722063616e20706572666f726d2074686973206163746960008201527f6f6e000000000000000000000000000000000000000000000000000000000000602082015250565b6000611f89602283611d28565b9150611f9482611f2d565b604082019050919050565b60006020820190508181036000830152611fb881611f7c565b9050919050565b7f596f7520646f6e2774206861766520656e6f7567682066756e647320746f207760008201527f6974686472617700000000000000000000000000000000000000000000000000602082015250565b600061201b602783611d28565b915061202682611fbf565b604082019050919050565b6000602082019050818103600083015261204a8161200e565b9050919050565b60006040820190506120666000830185611ad5565b612073602083018461198e565b9392505050565b7f5375626d6974207468652061736b696e6720707269636520696e206f7264657260008201527f20746f20636f6d706c6574652074686520707572636861736500000000000000602082015250565b60006120d6603983611d28565b91506120e18261207a565b604082019050919050565b60006020820190508181036000830152612105816120c9565b9050919050565b7f596f752063616e27742062757920796f7572206f776e204e4654000000000000600082015250565b6000612142601a83611d28565b915061214d8261210c565b602082019050919050565b6000602082019050818103600083015261217181612135565b9050919050565b600060208201905061218d6000830184611ae4565b9291505056fea2646970667358221220e5b62b37d74d6e0fbd55af5b1ed8d01745026fcfbae1b769214e324d398ad59c64736f6c634300080b0033",
  "linkReferences": {},
  "deployedLinkReferences": {}
}