{
  "_format": "hh-sol-artifact-1",
  "contractName": "NFTMarket",
  "sourceName": "contracts/NFTMarket.sol",
  "abi": [
    {
      "inputs": [],
      "stateMutability": "nonpayable",
      "type": "constructor"
    },
    {
      "anonymous": false,
      "inputs": [
        {
          "indexed": false,
          "internalType": "address",
          "name": "user",
          "type": "address"
        },
        {
          "indexed": false,
          "internalType": "uint256",
          "name": "_balance",
          "type": "uint256"
        }
      ],
      "name": "BalanceWithdrawn",
      "type": "event"
    },
    {
      "anonymous": false,
      "inputs": [
        {
          "indexed": true,
          "internalType": "uint256",
          "name": "itemId",
          "type": "uint256"
        },
        {
          "indexed": true,
          "internalType": "address",
          "name": "nftContractAddress",
          "type": "address"
        },
        {
          "indexed": true,
          "internalType": "uint256",
          "name": "tokenId",
          "type": "uint256"
        },
        {
          "indexed": false,
          "internalType": "address payable",
          "name": "seller",
          "type": "address"
        },
        {
          "indexed": false,
          "internalType": "address payable",
          "name": "owner",
          "type": "address"
        },
        {
          "indexed": false,
          "internalType": "uint256",
          "name": "price",
          "type": "uint256"
        },
        {
          "indexed": false,
          "internalType": "uint256",
          "name": "createdAt",
          "type": "uint256"
        },
        {
          "indexed": false,
          "internalType": "bool",
          "name": "sold",
          "type": "bool"
        }
      ],
      "name": "MarketItemCreated",
      "type": "event"
    },
    {
      "anonymous": false,
      "inputs": [
        {
          "indexed": true,
          "internalType": "uint256",
          "name": "itemId",
          "type": "uint256"
        },
        {
          "indexed": true,
          "internalType": "uint256",
          "name": "tokenId",
          "type": "uint256"
        },
        {
          "indexed": false,
          "internalType": "address payable",
          "name": "sellers",
          "type": "address"
        }
      ],
      "name": "MarketItemSold",
      "type": "event"
    },
    {
      "inputs": [
        {
          "internalType": "address",
          "name": "nftContractAddress",
          "type": "address"
        },
        {
          "internalType": "uint256",
          "name": "tokenId",
          "type": "uint256"
        },
        {
          "internalType": "uint256",
          "name": "price",
          "type": "uint256"
        }
      ],
      "name": "createMarketItem",
      "outputs": [],
      "stateMutability": "payable",
      "type": "function"
    },
    {
      "inputs": [
        {
          "internalType": "address",
          "name": "nftContractAddress",
          "type": "address"
        },
        {
          "internalType": "uint256",
          "name": "itemId",
          "type": "uint256"
        }
      ],
      "name": "createMarketItemSale",
      "outputs": [],
      "stateMutability": "payable",
      "type": "function"
    },
    {
      "inputs": [],
      "name": "fetchItemsCreated",
      "outputs": [
        {
          "components": [
            {
              "internalType": "uint256",
              "name": "itemId",
              "type": "uint256"
            },
            {
              "internalType": "address",
              "name": "nftContractAddress",
              "type": "address"
            },
            {
              "internalType": "uint256",
              "name": "tokenId",
              "type": "uint256"
            },
            {
              "internalType": "address payable",
              "name": "seller",
              "type": "address"
            },
            {
              "internalType": "address payable",
              "name": "owner",
              "type": "address"
            },
            {
              "internalType": "uint256",
              "name": "price",
              "type": "uint256"
            },
            {
              "internalType": "uint256",
              "name": "createdAt",
              "type": "uint256"
            },
            {
              "internalType": "bool",
              "name": "sold",
              "type": "bool"
            }
          ],
          "internalType": "struct NFTMarket.MarketItem[]",
          "name": "",
          "type": "tuple[]"
        }
      ],
      "stateMutability": "view",
      "type": "function"
    },
    {
      "inputs": [],
      "name": "fetchMarketItems",
      "outputs": [
        {
          "components": [
            {
              "internalType": "uint256",
              "name": "itemId",
              "type": "uint256"
            },
            {
              "internalType": "address",
              "name": "nftContractAddress",
              "type": "address"
            },
            {
              "internalType": "uint256",
              "name": "tokenId",
              "type": "uint256"
            },
            {
              "internalType": "address payable",
              "name": "seller",
              "type": "address"
            },
            {
              "internalType": "address payable",
              "name": "owner",
              "type": "address"
            },
            {
              "internalType": "uint256",
              "name": "price",
              "type": "uint256"
            },
            {
              "internalType": "uint256",
              "name": "createdAt",
              "type": "uint256"
            },
            {
              "internalType": "bool",
              "name": "sold",
              "type": "bool"
            }
          ],
          "internalType": "struct NFTMarket.MarketItem[]",
          "name": "",
          "type": "tuple[]"
        }
      ],
      "stateMutability": "view",
      "type": "function"
    },
    {
      "inputs": [],
      "name": "fetchMyNFTs",
      "outputs": [
        {
          "components": [
            {
              "internalType": "uint256",
              "name": "itemId",
              "type": "uint256"
            },
            {
              "internalType": "address",
              "name": "nftContractAddress",
              "type": "address"
            },
            {
              "internalType": "uint256",
              "name": "tokenId",
              "type": "uint256"
            },
            {
              "internalType": "address payable",
              "name": "seller",
              "type": "address"
            },
            {
              "internalType": "address payable",
              "name": "owner",
              "type": "address"
            },
            {
              "internalType": "uint256",
              "name": "price",
              "type": "uint256"
            },
            {
              "internalType": "uint256",
              "name": "createdAt",
              "type": "uint256"
            },
            {
              "internalType": "bool",
              "name": "sold",
              "type": "bool"
            }
          ],
          "internalType": "struct NFTMarket.MarketItem[]",
          "name": "",
          "type": "tuple[]"
        }
      ],
      "stateMutability": "view",
      "type": "function"
    },
    {
      "inputs": [],
      "name": "getListingPrice",
      "outputs": [
        {
          "internalType": "uint256",
          "name": "_listingPrice",
          "type": "uint256"
        }
      ],
      "stateMutability": "view",
      "type": "function"
    },
    {
      "inputs": [
        {
          "internalType": "address",
          "name": "_newOwner",
          "type": "address"
        }
      ],
      "name": "transferOwnership",
      "outputs": [
        {
          "internalType": "bool",
          "name": "transferred",
          "type": "bool"
        }
      ],
      "stateMutability": "nonpayable",
      "type": "function"
    },
    {
      "inputs": [],
      "name": "withdrawBalance",
      "outputs": [],
      "stateMutability": "nonpayable",
      "type": "function"
    }
  ],
  "bytecode": "0x6080604052666a94d74f430000600455600060055534801561002057600080fd5b50600160008190555033600360006101000a81548173ffffffffffffffffffffffffffffffffffffffff021916908373ffffffffffffffffffffffffffffffffffffffff160217905550611fea806100796000396000f3fe60806040526004361061007b5760003560e01c80635fd8c7101161004e5780635fd8c7101461011d578063a425dd0914610134578063f064c32e14610150578063f2fde38b1461017b5761007b565b80630f08efe01461008057806312e85585146100ab578063202e3740146100d657806358eb2df514610101575b600080fd5b34801561008c57600080fd5b506100956101b8565b6040516100a29190611838565b60405180910390f35b3480156100b757600080fd5b506100c061049a565b6040516100cd9190611869565b60405180910390f35b3480156100e257600080fd5b506100eb6104a4565b6040516100f89190611838565b60405180910390f35b61011b600480360381019061011691906118e1565b610813565b005b34801561012957600080fd5b50610132610b8a565b005b61014e60048036038101906101499190611934565b610cf1565b005b34801561015c57600080fd5b50610165611036565b6040516101729190611838565b60405180910390f35b34801561018757600080fd5b506101a2600480360381019061019d9190611974565b6113a5565b6040516101af91906119b0565b60405180910390f35b606060006101c660016115a3565b905060006101d460026115a3565b826101df91906119fa565b90506000808267ffffffffffffffff8111156101fe576101fd611a2e565b5b60405190808252806020026020018201604052801561023757816020015b6102246115c7565b81526020019060019003908161021c5790505b50905060005b8481101561048f57600073ffffffffffffffffffffffffffffffffffffffff166006600060018461026e9190611a5d565b815260200190815260200160002060040160009054906101000a900473ffffffffffffffffffffffffffffffffffffffff1673ffffffffffffffffffffffffffffffffffffffff16141561047c576000600660006001846102cf9190611a5d565b815260200190815260200160002060000154905060006006600083815260200190815260200160002090508060405180610100016040529081600082015481526020016001820160009054906101000a900473ffffffffffffffffffffffffffffffffffffffff1673ffffffffffffffffffffffffffffffffffffffff1673ffffffffffffffffffffffffffffffffffffffff168152602001600282015481526020016003820160009054906101000a900473ffffffffffffffffffffffffffffffffffffffff1673ffffffffffffffffffffffffffffffffffffffff1673ffffffffffffffffffffffffffffffffffffffff1681526020016004820160009054906101000a900473ffffffffffffffffffffffffffffffffffffffff1673ffffffffffffffffffffffffffffffffffffffff1673ffffffffffffffffffffffffffffffffffffffff16815260200160058201548152602001600682015481526020016007820160009054906101000a900460ff16151515158152505084838151811061045f5761045e611ab3565b5b60200260200101819052506001856104779190611a5d565b945050505b808061048790611ae2565b91505061023d565b508094505050505090565b6000600454905090565b606060006104b260016115a3565b905060008060005b8381101561055b573373ffffffffffffffffffffffffffffffffffffffff16600660006001846104ea9190611a5d565b815260200190815260200160002060040160009054906101000a900473ffffffffffffffffffffffffffffffffffffffff1673ffffffffffffffffffffffffffffffffffffffff161415610548576001836105459190611a5d565b92505b808061055390611ae2565b9150506104ba565b5060008367ffffffffffffffff81111561057857610577611a2e565b5b6040519080825280602002602001820160405280156105b157816020015b61059e6115c7565b8152602001906001900390816105965790505b50905060005b84811015610808573373ffffffffffffffffffffffffffffffffffffffff16600660006001846105e79190611a5d565b815260200190815260200160002060040160009054906101000a900473ffffffffffffffffffffffffffffffffffffffff1673ffffffffffffffffffffffffffffffffffffffff1614156107f5576000600660006001846106489190611a5d565b815260200190815260200160002060000154905060006006600083815260200190815260200160002090508060405180610100016040529081600082015481526020016001820160009054906101000a900473ffffffffffffffffffffffffffffffffffffffff1673ffffffffffffffffffffffffffffffffffffffff1673ffffffffffffffffffffffffffffffffffffffff168152602001600282015481526020016003820160009054906101000a900473ffffffffffffffffffffffffffffffffffffffff1673ffffffffffffffffffffffffffffffffffffffff1673ffffffffffffffffffffffffffffffffffffffff1681526020016004820160009054906101000a900473ffffffffffffffffffffffffffffffffffffffff1673ffffffffffffffffffffffffffffffffffffffff1673ffffffffffffffffffffffffffffffffffffffff16815260200160058201548152602001600682015481526020016007820160009054906101000a900460ff1615151515815250508483815181106107d8576107d7611ab3565b5b60200260200101819052506001856107f09190611a5d565b945050505b808061080090611ae2565b9150506105b7565b508094505050505090565b60026000541415610859576040517f08c379a000000000000000000000000000000000000000000000000000000000815260040161085090611b88565b60405180910390fd5b6002600081905550600081116108a4576040517f08c379a000000000000000000000000000000000000000000000000000000000815260040161089b90611bf4565b60405180910390fd5b60045434146108e8576040517f08c379a00000000000000000000000000000000000000000000000000000000081526004016108df90611c86565b60405180910390fd5b6108f260016115b1565b60006108fe60016115a3565b90506040518061010001604052808281526020018573ffffffffffffffffffffffffffffffffffffffff1681526020018481526020013373ffffffffffffffffffffffffffffffffffffffff168152602001600073ffffffffffffffffffffffffffffffffffffffff16815260200183815260200142815260200160001515815250600660008381526020019081526020016000206000820151816000015560208201518160010160006101000a81548173ffffffffffffffffffffffffffffffffffffffff021916908373ffffffffffffffffffffffffffffffffffffffff1602179055506040820151816002015560608201518160030160006101000a81548173ffffffffffffffffffffffffffffffffffffffff021916908373ffffffffffffffffffffffffffffffffffffffff16021790555060808201518160040160006101000a81548173ffffffffffffffffffffffffffffffffffffffff021916908373ffffffffffffffffffffffffffffffffffffffff16021790555060a0820151816005015560c0820151816006015560e08201518160070160006101000a81548160ff0219169083151502179055509050508373ffffffffffffffffffffffffffffffffffffffff166323b872dd3330866040518463ffffffff1660e01b8152600401610af093929190611cb5565b600060405180830381600087803b158015610b0a57600080fd5b505af1158015610b1e573d6000803e3d6000fd5b50505050828473ffffffffffffffffffffffffffffffffffffffff16827fd0bb1eaea8ab6cd0c288f209757734c5e280d8f4e05f93b1db82da8db727875833600087426000604051610b74959493929190611cfb565b60405180910390a4506001600081905550505050565b600360009054906101000a900473ffffffffffffffffffffffffffffffffffffffff1673ffffffffffffffffffffffffffffffffffffffff163373ffffffffffffffffffffffffffffffffffffffff1614610c1a576040517f08c379a0000000000000000000000000000000000000000000000000000000008152600401610c1190611dc0565b60405180910390fd5b600060055411610c5f576040517f08c379a0000000000000000000000000000000000000000000000000000000008152600401610c5690611e52565b60405180910390fd5b600060055490503373ffffffffffffffffffffffffffffffffffffffff166108fc829081150290604051600060405180830381858888f19350505050158015610cac573d6000803e3d6000fd5b5060006005819055507fddc398b321237a8d40ac914388309c2f52a08c134e4dc4ce61e32f57cb7d80f13382604051610ce6929190611e72565b60405180910390a150565b60026000541415610d37576040517f08c379a0000000000000000000000000000000000000000000000000000000008152600401610d2e90611b88565b60405180910390fd5b6002600081905550600060066000838152602001908152602001600020600501549050600060066000848152602001908152602001600020600001549050813414610db7576040517f08c379a0000000000000000000000000000000000000000000000000000000008152600401610dae90611f0d565b60405180910390fd5b3373ffffffffffffffffffffffffffffffffffffffff166006600085815260200190815260200160002060040160009054906101000a900473ffffffffffffffffffffffffffffffffffffffff1673ffffffffffffffffffffffffffffffffffffffff161415610e5c576040517f08c379a0000000000000000000000000000000000000000000000000000000008152600401610e5390611f79565b60405180910390fd5b6006600084815260200190815260200160002060030160009054906101000a900473ffffffffffffffffffffffffffffffffffffffff1673ffffffffffffffffffffffffffffffffffffffff166108fc349081150290604051600060405180830381858888f19350505050158015610ed8573d6000803e3d6000fd5b508373ffffffffffffffffffffffffffffffffffffffff166342842e0e3033846040518463ffffffff1660e01b8152600401610f1693929190611cb5565b600060405180830381600087803b158015610f3057600080fd5b505af1158015610f44573d6000803e3d6000fd5b50505050336006600085815260200190815260200160002060040160006101000a81548173ffffffffffffffffffffffffffffffffffffffff021916908373ffffffffffffffffffffffffffffffffffffffff16021790555060016006600085815260200190815260200160002060070160006101000a81548160ff0219169083151502179055503460056000828254610fde9190611a5d565b92505081905550610fef60026115b1565b80837f18ea31d45b430c5a6a343a2912f8b8510eedd2f3f655126496535893b3bc9a5a336040516110209190611f99565b60405180910390a3505060016000819055505050565b6060600061104460016115a3565b905060008060005b838110156110ed573373ffffffffffffffffffffffffffffffffffffffff166006600060018461107c9190611a5d565b815260200190815260200160002060030160009054906101000a900473ffffffffffffffffffffffffffffffffffffffff1673ffffffffffffffffffffffffffffffffffffffff1614156110da576001836110d79190611a5d565b92505b80806110e590611ae2565b91505061104c565b5060008367ffffffffffffffff81111561110a57611109611a2e565b5b60405190808252806020026020018201604052801561114357816020015b6111306115c7565b8152602001906001900390816111285790505b50905060005b8481101561139a573373ffffffffffffffffffffffffffffffffffffffff16600660006001846111799190611a5d565b815260200190815260200160002060030160009054906101000a900473ffffffffffffffffffffffffffffffffffffffff1673ffffffffffffffffffffffffffffffffffffffff161415611387576000600660006001846111da9190611a5d565b815260200190815260200160002060000154905060006006600083815260200190815260200160002090508060405180610100016040529081600082015481526020016001820160009054906101000a900473ffffffffffffffffffffffffffffffffffffffff1673ffffffffffffffffffffffffffffffffffffffff1673ffffffffffffffffffffffffffffffffffffffff168152602001600282015481526020016003820160009054906101000a900473ffffffffffffffffffffffffffffffffffffffff1673ffffffffffffffffffffffffffffffffffffffff1673ffffffffffffffffffffffffffffffffffffffff1681526020016004820160009054906101000a900473ffffffffffffffffffffffffffffffffffffffff1673ffffffffffffffffffffffffffffffffffffffff1673ffffffffffffffffffffffffffffffffffffffff16815260200160058201548152602001600682015481526020016007820160009054906101000a900460ff16151515158152505084838151811061136a57611369611ab3565b5b60200260200101819052506001856113829190611a5d565b945050505b808061139290611ae2565b915050611149565b508094505050505090565b6000600360009054906101000a900473ffffffffffffffffffffffffffffffffffffffff1673ffffffffffffffffffffffffffffffffffffffff163373ffffffffffffffffffffffffffffffffffffffff1614611437576040517f08c379a000000000000000000000000000000000000000000000000000000000815260040161142e90611dc0565b60405180910390fd5b600061144360016115a3565b905082600360006101000a81548173ffffffffffffffffffffffffffffffffffffffff021916908373ffffffffffffffffffffffffffffffffffffffff16021790555060005b81811015611598573373ffffffffffffffffffffffffffffffffffffffff16600660006001846114b99190611a5d565b815260200190815260200160002060040160009054906101000a900473ffffffffffffffffffffffffffffffffffffffff1673ffffffffffffffffffffffffffffffffffffffff1614156115855760006006600060018461151a9190611a5d565b8152602001908152602001600020600001549050846006600083815260200190815260200160002060040160006101000a81548173ffffffffffffffffffffffffffffffffffffffff021916908373ffffffffffffffffffffffffffffffffffffffff160217905550505b808061159090611ae2565b915050611489565b506001915050919050565b600081600001549050919050565b6001816000016000828254019250508190555050565b60405180610100016040528060008152602001600073ffffffffffffffffffffffffffffffffffffffff16815260200160008152602001600073ffffffffffffffffffffffffffffffffffffffff168152602001600073ffffffffffffffffffffffffffffffffffffffff16815260200160008152602001600081526020016000151581525090565b600081519050919050565b600082825260208201905092915050565b6000819050602082019050919050565b6000819050919050565b61168f8161167c565b82525050565b600073ffffffffffffffffffffffffffffffffffffffff82169050919050565b60006116c082611695565b9050919050565b6116d0816116b5565b82525050565b60006116e182611695565b9050919050565b6116f1816116d6565b82525050565b60008115159050919050565b61170c816116f7565b82525050565b610100820160008201516117296000850182611686565b50602082015161173c60208501826116c7565b50604082015161174f6040850182611686565b50606082015161176260608501826116e8565b50608082015161177560808501826116e8565b5060a082015161178860a0850182611686565b5060c082015161179b60c0850182611686565b5060e08201516117ae60e0850182611703565b50505050565b60006117c08383611712565b6101008301905092915050565b6000602082019050919050565b60006117e582611650565b6117ef818561165b565b93506117fa8361166c565b8060005b8381101561182b57815161181288826117b4565b975061181d836117cd565b9250506001810190506117fe565b5085935050505092915050565b6000602082019050818103600083015261185281846117da565b905092915050565b6118638161167c565b82525050565b600060208201905061187e600083018461185a565b92915050565b600080fd5b611892816116b5565b811461189d57600080fd5b50565b6000813590506118af81611889565b92915050565b6118be8161167c565b81146118c957600080fd5b50565b6000813590506118db816118b5565b92915050565b6000806000606084860312156118fa576118f9611884565b5b6000611908868287016118a0565b9350506020611919868287016118cc565b925050604061192a868287016118cc565b9150509250925092565b6000806040838503121561194b5761194a611884565b5b6000611959858286016118a0565b925050602061196a858286016118cc565b9150509250929050565b60006020828403121561198a57611989611884565b5b6000611998848285016118a0565b91505092915050565b6119aa816116f7565b82525050565b60006020820190506119c560008301846119a1565b92915050565b7f4e487b7100000000000000000000000000000000000000000000000000000000600052601160045260246000fd5b6000611a058261167c565b9150611a108361167c565b925082821015611a2357611a226119cb565b5b828203905092915050565b7f4e487b7100000000000000000000000000000000000000000000000000000000600052604160045260246000fd5b6000611a688261167c565b9150611a738361167c565b9250827fffffffffffffffffffffffffffffffffffffffffffffffffffffffffffffffff03821115611aa857611aa76119cb565b5b828201905092915050565b7f4e487b7100000000000000000000000000000000000000000000000000000000600052603260045260246000fd5b6000611aed8261167c565b91507fffffffffffffffffffffffffffffffffffffffffffffffffffffffffffffffff821415611b2057611b1f6119cb565b5b600182019050919050565b600082825260208201905092915050565b7f5265656e7472616e637947756172643a207265656e7472616e742063616c6c00600082015250565b6000611b72601f83611b2b565b9150611b7d82611b3c565b602082019050919050565b60006020820190508181036000830152611ba181611b65565b9050919050565b7f5072696365206d757374206265206174206c6561737420312077656900000000600082015250565b6000611bde601c83611b2b565b9150611be982611ba8565b602082019050919050565b60006020820190508181036000830152611c0d81611bd1565b9050919050565b7f5072696365206d75737420626520657175616c20746f20746865206c6973746960008201527f6e67207072696365000000000000000000000000000000000000000000000000602082015250565b6000611c70602883611b2b565b9150611c7b82611c14565b604082019050919050565b60006020820190508181036000830152611c9f81611c63565b9050919050565b611caf816116b5565b82525050565b6000606082019050611cca6000830186611ca6565b611cd76020830185611ca6565b611ce4604083018461185a565b949350505050565b611cf5816116d6565b82525050565b600060a082019050611d106000830188611cec565b611d1d6020830187611cec565b611d2a604083018661185a565b611d37606083018561185a565b611d4460808301846119a1565b9695505050505050565b7f4f6e6c79206f776e65722063616e20706572666f726d2074686973206163746960008201527f6f6e000000000000000000000000000000000000000000000000000000000000602082015250565b6000611daa602283611b2b565b9150611db582611d4e565b604082019050919050565b60006020820190508181036000830152611dd981611d9d565b9050919050565b7f596f7520646f6e2774206861766520656e6f7567682066756e647320746f207760008201527f6974686472617700000000000000000000000000000000000000000000000000602082015250565b6000611e3c602783611b2b565b9150611e4782611de0565b604082019050919050565b60006020820190508181036000830152611e6b81611e2f565b9050919050565b6000604082019050611e876000830185611ca6565b611e94602083018461185a565b9392505050565b7f5375626d6974207468652061736b696e6720707269636520696e206f7264657260008201527f20746f20636f6d706c6574652074686520707572636861736500000000000000602082015250565b6000611ef7603983611b2b565b9150611f0282611e9b565b604082019050919050565b60006020820190508181036000830152611f2681611eea565b9050919050565b7f596f752063616e27742062757920796f7572206f776e204e4654000000000000600082015250565b6000611f63601a83611b2b565b9150611f6e82611f2d565b602082019050919050565b60006020820190508181036000830152611f9281611f56565b9050919050565b6000602082019050611fae6000830184611cec565b9291505056fea2646970667358221220ce61fc026afb5e17ca0ed76f613168138ae91b7727bdd0abb964360596f3fb2b64736f6c634300080b0033",
  "linkReferences": {},
  "deployedLinkReferences": {}
}