{
  "_format": "hh-sol-artifact-1",
  "contractName": "NFTMarket",
  "sourceName": "contracts/NFTMarket.sol",
  "abi": [
    {
      "inputs": [],
      "stateMutability": "nonpayable",
      "type": "constructor"
    },
    {
      "anonymous": false,
      "inputs": [
        {
          "indexed": false,
          "internalType": "address",
          "name": "user",
          "type": "address"
        },
        {
          "indexed": false,
          "internalType": "uint256",
          "name": "_balance",
          "type": "uint256"
        }
      ],
      "name": "BalanceWithdrawn",
      "type": "event"
    },
    {
      "anonymous": false,
      "inputs": [
        {
          "indexed": true,
          "internalType": "uint256",
          "name": "itemId",
          "type": "uint256"
        },
        {
          "indexed": true,
          "internalType": "address",
          "name": "nftContractAddress",
          "type": "address"
        },
        {
          "indexed": true,
          "internalType": "uint256",
          "name": "tokenId",
          "type": "uint256"
        },
        {
          "indexed": false,
          "internalType": "address payable",
          "name": "seller",
          "type": "address"
        },
        {
          "indexed": false,
          "internalType": "address payable",
          "name": "owner",
          "type": "address"
        },
        {
          "indexed": false,
          "internalType": "uint256",
          "name": "price",
          "type": "uint256"
        },
        {
          "indexed": false,
          "internalType": "bool",
          "name": "sold",
          "type": "bool"
        },
        {
          "indexed": false,
          "internalType": "string",
          "name": "category",
          "type": "string"
        },
        {
          "indexed": false,
          "internalType": "string",
          "name": "username",
          "type": "string"
        },
        {
          "indexed": false,
          "internalType": "uint256",
          "name": "timestamp",
          "type": "uint256"
        }
      ],
      "name": "MarketItemCreated",
      "type": "event"
    },
    {
      "anonymous": false,
      "inputs": [
        {
          "indexed": true,
          "internalType": "uint256",
          "name": "itemId",
          "type": "uint256"
        },
        {
          "indexed": true,
          "internalType": "uint256",
          "name": "tokenId",
          "type": "uint256"
        },
        {
          "indexed": false,
          "internalType": "address payable",
          "name": "sellers",
          "type": "address"
        }
      ],
      "name": "MarketItemSold",
      "type": "event"
    },
    {
      "inputs": [],
      "name": "_itemIds",
      "outputs": [
        {
          "internalType": "uint256",
          "name": "",
          "type": "uint256"
        }
      ],
      "stateMutability": "view",
      "type": "function"
    },
    {
      "inputs": [
        {
          "internalType": "address",
          "name": "nftContractAddress",
          "type": "address"
        },
        {
          "internalType": "uint256",
          "name": "tokenId",
          "type": "uint256"
        },
        {
          "internalType": "uint256",
          "name": "price",
          "type": "uint256"
        },
        {
          "internalType": "string",
          "name": "_category",
          "type": "string"
        },
        {
          "internalType": "string",
          "name": "_username",
          "type": "string"
        },
        {
          "internalType": "uint256",
          "name": "_timestamp",
          "type": "uint256"
        }
      ],
      "name": "createMarketItem",
      "outputs": [],
      "stateMutability": "payable",
      "type": "function"
    },
    {
      "inputs": [
        {
          "internalType": "address",
          "name": "nftContractAddress",
          "type": "address"
        },
        {
          "internalType": "uint256",
          "name": "itemId",
          "type": "uint256"
        }
      ],
      "name": "createMarketSale",
      "outputs": [],
      "stateMutability": "payable",
      "type": "function"
    },
    {
      "inputs": [],
      "name": "getListingPrice",
      "outputs": [
        {
          "internalType": "uint256",
          "name": "_listingPrice",
          "type": "uint256"
        }
      ],
      "stateMutability": "view",
      "type": "function"
    },
    {
      "inputs": [
        {
          "internalType": "uint256",
          "name": "",
          "type": "uint256"
        }
      ],
      "name": "idToMarketItem",
      "outputs": [
        {
          "internalType": "uint256",
          "name": "itemId",
          "type": "uint256"
        },
        {
          "internalType": "address",
          "name": "nftContractAddress",
          "type": "address"
        },
        {
          "internalType": "uint256",
          "name": "tokenId",
          "type": "uint256"
        },
        {
          "internalType": "address payable",
          "name": "seller",
          "type": "address"
        },
        {
          "internalType": "address payable",
          "name": "owner",
          "type": "address"
        },
        {
          "internalType": "uint256",
          "name": "price",
          "type": "uint256"
        },
        {
          "internalType": "bool",
          "name": "sold",
          "type": "bool"
        },
        {
          "internalType": "string",
          "name": "category",
          "type": "string"
        },
        {
          "internalType": "string",
          "name": "username",
          "type": "string"
        },
        {
          "internalType": "uint256",
          "name": "timestamp",
          "type": "uint256"
        }
      ],
      "stateMutability": "view",
      "type": "function"
    },
    {
      "inputs": [
        {
          "internalType": "address",
          "name": "_newOwner",
          "type": "address"
        }
      ],
      "name": "transferOwnership",
      "outputs": [
        {
          "internalType": "bool",
          "name": "transferred",
          "type": "bool"
        }
      ],
      "stateMutability": "nonpayable",
      "type": "function"
    },
    {
      "inputs": [],
      "name": "withdrawBalance",
      "outputs": [],
      "stateMutability": "nonpayable",
      "type": "function"
    }
  ],
  "bytecode": "0x6080604052666a94d74f430000600455600060055534801561002057600080fd5b50600160008190555033600360006101000a81548173ffffffffffffffffffffffffffffffffffffffff021916908373ffffffffffffffffffffffffffffffffffffffff16021790555061199f806100796000396000f3fe6080604052600436106100705760003560e01c80635fd8c7101161004e5780635fd8c710146100e7578063c23b139e146100fe578063e61a70c01461011a578063f2fde38b1461016057610070565b806312e85585146100755780631592277b146100a057806334a7f193146100bc575b600080fd5b34801561008157600080fd5b5061008a61019d565b6040516100979190610ec0565b60405180910390f35b6100ba60048036038101906100b591906110bf565b6101a7565b005b3480156100c857600080fd5b506100d1610574565b6040516100de9190610ec0565b60405180910390f35b3480156100f357600080fd5b506100fc61057a565b005b61011860048036038101906101139190611184565b6106e1565b005b34801561012657600080fd5b50610141600480360381019061013c91906111c4565b610a26565b6040516101579a999897969594939291906112c4565b60405180910390f35b34801561016c57600080fd5b506101876004803603810190610182919061136e565b610bf7565b604051610194919061139b565b60405180910390f35b6000600454905090565b600260005414156101ed576040517f08c379a00000000000000000000000000000000000000000000000000000000081526004016101e490611402565b60405180910390fd5b600260008190555060008411610238576040517f08c379a000000000000000000000000000000000000000000000000000000000815260040161022f9061146e565b60405180910390fd5b600454341461027c576040517f08c379a000000000000000000000000000000000000000000000000000000000815260040161027390611500565b60405180910390fd5b8573ffffffffffffffffffffffffffffffffffffffff166323b872dd3330886040518463ffffffff1660e01b81526004016102b993929190611520565b600060405180830381600087803b1580156102d357600080fd5b505af11580156102e7573d6000803e3d6000fd5b50505050600160008154809291906102fe90611586565b9190505550600060015490506040518061014001604052808281526020018873ffffffffffffffffffffffffffffffffffffffff1681526020018781526020013373ffffffffffffffffffffffffffffffffffffffff168152602001600073ffffffffffffffffffffffffffffffffffffffff16815260200186815260200160001515815260200185815260200184815260200183815250600660008381526020019081526020016000206000820151816000015560208201518160010160006101000a81548173ffffffffffffffffffffffffffffffffffffffff021916908373ffffffffffffffffffffffffffffffffffffffff1602179055506040820151816002015560608201518160030160006101000a81548173ffffffffffffffffffffffffffffffffffffffff021916908373ffffffffffffffffffffffffffffffffffffffff16021790555060808201518160040160006101000a81548173ffffffffffffffffffffffffffffffffffffffff021916908373ffffffffffffffffffffffffffffffffffffffff16021790555060a0820151816005015560c08201518160060160006101000a81548160ff02191690831515021790555060e08201518160070190805190602001906104d8929190610e04565b506101008201518160080190805190602001906104f6929190610e04565b506101208201518160090155905050858773ffffffffffffffffffffffffffffffffffffffff16827f395cacecb2b74e684165508456b91ddcbc8607cc7581bab2c89559ba7b11b1cf3360008a60008b8b8b60405161055b97969594939291906115cf565b60405180910390a4506001600081905550505050505050565b60015481565b600360009054906101000a900473ffffffffffffffffffffffffffffffffffffffff1673ffffffffffffffffffffffffffffffffffffffff163373ffffffffffffffffffffffffffffffffffffffff161461060a576040517f08c379a0000000000000000000000000000000000000000000000000000000008152600401610601906116be565b60405180910390fd5b60006005541161064f576040517f08c379a000000000000000000000000000000000000000000000000000000000815260040161064690611750565b60405180910390fd5b600060055490503373ffffffffffffffffffffffffffffffffffffffff166108fc829081150290604051600060405180830381858888f1935050505015801561069c573d6000803e3d6000fd5b5060006005819055507fddc398b321237a8d40ac914388309c2f52a08c134e4dc4ce61e32f57cb7d80f133826040516106d6929190611770565b60405180910390a150565b60026000541415610727576040517f08c379a000000000000000000000000000000000000000000000000000000000815260040161071e90611402565b60405180910390fd5b60026000819055506000600660008381526020019081526020016000206005015490506000600660008481526020019081526020016000206000015490508134146107a7576040517f08c379a000000000000000000000000000000000000000000000000000000000815260040161079e9061180b565b60405180910390fd5b3373ffffffffffffffffffffffffffffffffffffffff166006600085815260200190815260200160002060040160009054906101000a900473ffffffffffffffffffffffffffffffffffffffff1673ffffffffffffffffffffffffffffffffffffffff16141561084c576040517f08c379a000000000000000000000000000000000000000000000000000000000815260040161084390611877565b60405180910390fd5b6006600084815260200190815260200160002060030160009054906101000a900473ffffffffffffffffffffffffffffffffffffffff1673ffffffffffffffffffffffffffffffffffffffff166108fc349081150290604051600060405180830381858888f193505050501580156108c8573d6000803e3d6000fd5b508373ffffffffffffffffffffffffffffffffffffffff166342842e0e3033846040518463ffffffff1660e01b815260040161090693929190611520565b600060405180830381600087803b15801561092057600080fd5b505af1158015610934573d6000803e3d6000fd5b50505050336006600085815260200190815260200160002060040160006101000a81548173ffffffffffffffffffffffffffffffffffffffff021916908373ffffffffffffffffffffffffffffffffffffffff16021790555060016006600085815260200190815260200160002060060160006101000a81548160ff02191690831515021790555034600560008282546109ce9190611897565b925050819055506109df6002610dee565b80837f18ea31d45b430c5a6a343a2912f8b8510eedd2f3f655126496535893b3bc9a5a33604051610a1091906118ed565b60405180910390a3505060016000819055505050565b60066020528060005260406000206000915090508060000154908060010160009054906101000a900473ffffffffffffffffffffffffffffffffffffffff16908060020154908060030160009054906101000a900473ffffffffffffffffffffffffffffffffffffffff16908060040160009054906101000a900473ffffffffffffffffffffffffffffffffffffffff16908060050154908060060160009054906101000a900460ff1690806007018054610ae090611937565b80601f0160208091040260200160405190810160405280929190818152602001828054610b0c90611937565b8015610b595780601f10610b2e57610100808354040283529160200191610b59565b820191906000526020600020905b815481529060010190602001808311610b3c57829003601f168201915b505050505090806008018054610b6e90611937565b80601f0160208091040260200160405190810160405280929190818152602001828054610b9a90611937565b8015610be75780601f10610bbc57610100808354040283529160200191610be7565b820191906000526020600020905b815481529060010190602001808311610bca57829003601f168201915b505050505090806009015490508a565b6000600360009054906101000a900473ffffffffffffffffffffffffffffffffffffffff1673ffffffffffffffffffffffffffffffffffffffff163373ffffffffffffffffffffffffffffffffffffffff1614610c89576040517f08c379a0000000000000000000000000000000000000000000000000000000008152600401610c80906116be565b60405180910390fd5b6000600154905082600360006101000a81548173ffffffffffffffffffffffffffffffffffffffff021916908373ffffffffffffffffffffffffffffffffffffffff16021790555060005b81811015610de3573373ffffffffffffffffffffffffffffffffffffffff1660066000600184610d049190611897565b815260200190815260200160002060040160009054906101000a900473ffffffffffffffffffffffffffffffffffffffff1673ffffffffffffffffffffffffffffffffffffffff161415610dd057600060066000600184610d659190611897565b8152602001908152602001600020600001549050846006600083815260200190815260200160002060040160006101000a81548173ffffffffffffffffffffffffffffffffffffffff021916908373ffffffffffffffffffffffffffffffffffffffff160217905550505b8080610ddb90611586565b915050610cd4565b506001915050919050565b6001816000016000828254019250508190555050565b828054610e1090611937565b90600052602060002090601f016020900481019282610e325760008555610e79565b82601f10610e4b57805160ff1916838001178555610e79565b82800160010185558215610e79579182015b82811115610e78578251825591602001919060010190610e5d565b5b509050610e869190610e8a565b5090565b5b80821115610ea3576000816000905550600101610e8b565b5090565b6000819050919050565b610eba81610ea7565b82525050565b6000602082019050610ed56000830184610eb1565b92915050565b6000604051905090565b600080fd5b600080fd5b600073ffffffffffffffffffffffffffffffffffffffff82169050919050565b6000610f1a82610eef565b9050919050565b610f2a81610f0f565b8114610f3557600080fd5b50565b600081359050610f4781610f21565b92915050565b610f5681610ea7565b8114610f6157600080fd5b50565b600081359050610f7381610f4d565b92915050565b600080fd5b600080fd5b6000601f19601f8301169050919050565b7f4e487b7100000000000000000000000000000000000000000000000000000000600052604160045260246000fd5b610fcc82610f83565b810181811067ffffffffffffffff82111715610feb57610fea610f94565b5b80604052505050565b6000610ffe610edb565b905061100a8282610fc3565b919050565b600067ffffffffffffffff82111561102a57611029610f94565b5b61103382610f83565b9050602081019050919050565b82818337600083830152505050565b600061106261105d8461100f565b610ff4565b90508281526020810184848401111561107e5761107d610f7e565b5b611089848285611040565b509392505050565b600082601f8301126110a6576110a5610f79565b5b81356110b684826020860161104f565b91505092915050565b60008060008060008060c087890312156110dc576110db610ee5565b5b60006110ea89828a01610f38565b96505060206110fb89828a01610f64565b955050604061110c89828a01610f64565b945050606087013567ffffffffffffffff81111561112d5761112c610eea565b5b61113989828a01611091565b935050608087013567ffffffffffffffff81111561115a57611159610eea565b5b61116689828a01611091565b92505060a061117789828a01610f64565b9150509295509295509295565b6000806040838503121561119b5761119a610ee5565b5b60006111a985828601610f38565b92505060206111ba85828601610f64565b9150509250929050565b6000602082840312156111da576111d9610ee5565b5b60006111e884828501610f64565b91505092915050565b6111fa81610f0f565b82525050565b600061120b82610eef565b9050919050565b61121b81611200565b82525050565b60008115159050919050565b61123681611221565b82525050565b600081519050919050565b600082825260208201905092915050565b60005b8381101561127657808201518184015260208101905061125b565b83811115611285576000848401525b50505050565b60006112968261123c565b6112a08185611247565b93506112b0818560208601611258565b6112b981610f83565b840191505092915050565b6000610140820190506112da600083018d610eb1565b6112e7602083018c6111f1565b6112f4604083018b610eb1565b611301606083018a611212565b61130e6080830189611212565b61131b60a0830188610eb1565b61132860c083018761122d565b81810360e083015261133a818661128b565b905081810361010083015261134f818561128b565b905061135f610120830184610eb1565b9b9a5050505050505050505050565b60006020828403121561138457611383610ee5565b5b600061139284828501610f38565b91505092915050565b60006020820190506113b0600083018461122d565b92915050565b7f5265656e7472616e637947756172643a207265656e7472616e742063616c6c00600082015250565b60006113ec601f83611247565b91506113f7826113b6565b602082019050919050565b6000602082019050818103600083015261141b816113df565b9050919050565b7f5072696365206d757374206265206174206c6561737420312077656900000000600082015250565b6000611458601c83611247565b915061146382611422565b602082019050919050565b600060208201905081810360008301526114878161144b565b9050919050565b7f5072696365206d75737420626520657175616c20746f20746865206c6973746960008201527f6e67207072696365000000000000000000000000000000000000000000000000602082015250565b60006114ea602883611247565b91506114f58261148e565b604082019050919050565b60006020820190508181036000830152611519816114dd565b9050919050565b600060608201905061153560008301866111f1565b61154260208301856111f1565b61154f6040830184610eb1565b949350505050565b7f4e487b7100000000000000000000000000000000000000000000000000000000600052601160045260246000fd5b600061159182610ea7565b91507fffffffffffffffffffffffffffffffffffffffffffffffffffffffffffffffff8214156115c4576115c3611557565b5b600182019050919050565b600060e0820190506115e4600083018a611212565b6115f16020830189611212565b6115fe6040830188610eb1565b61160b606083018761122d565b818103608083015261161d818661128b565b905081810360a0830152611631818561128b565b905061164060c0830184610eb1565b98975050505050505050565b7f4f6e6c79206f776e65722063616e20706572666f726d2074686973206163746960008201527f6f6e000000000000000000000000000000000000000000000000000000000000602082015250565b60006116a8602283611247565b91506116b38261164c565b604082019050919050565b600060208201905081810360008301526116d78161169b565b9050919050565b7f596f7520646f6e2774206861766520656e6f7567682066756e647320746f207760008201527f6974686472617700000000000000000000000000000000000000000000000000602082015250565b600061173a602783611247565b9150611745826116de565b604082019050919050565b600060208201905081810360008301526117698161172d565b9050919050565b600060408201905061178560008301856111f1565b6117926020830184610eb1565b9392505050565b7f5375626d6974207468652061736b696e6720707269636520696e206f7264657260008201527f20746f20636f6d706c6574652074686520707572636861736500000000000000602082015250565b60006117f5603983611247565b915061180082611799565b604082019050919050565b60006020820190508181036000830152611824816117e8565b9050919050565b7f596f752063616e27742062757920796f7572206f776e204e4654000000000000600082015250565b6000611861601a83611247565b915061186c8261182b565b602082019050919050565b6000602082019050818103600083015261189081611854565b9050919050565b60006118a282610ea7565b91506118ad83610ea7565b9250827fffffffffffffffffffffffffffffffffffffffffffffffffffffffffffffffff038211156118e2576118e1611557565b5b828201905092915050565b60006020820190506119026000830184611212565b92915050565b7f4e487b7100000000000000000000000000000000000000000000000000000000600052602260045260246000fd5b6000600282049050600182168061194f57607f821691505b6020821081141561196357611962611908565b5b5091905056fea2646970667358221220bf6a2713d46402413e34a2dad64b8453e52d9afef6d4852fa136370c23a6a06e64736f6c634300080b0033",
  "linkReferences": {},
  "deployedLinkReferences": {}
}