{
  "_format": "hh-sol-artifact-1",
  "contractName": "NFTMarket",
  "sourceName": "contracts/NFTMarket.sol",
  "abi": [
    {
      "inputs": [],
      "stateMutability": "nonpayable",
      "type": "constructor"
    },
    {
      "anonymous": false,
      "inputs": [
        {
          "indexed": true,
          "internalType": "uint256",
          "name": "itemId",
          "type": "uint256"
        },
        {
          "indexed": true,
          "internalType": "address",
          "name": "nftContractAddress",
          "type": "address"
        },
        {
          "indexed": true,
          "internalType": "uint256",
          "name": "tokenId",
          "type": "uint256"
        },
        {
          "indexed": false,
          "internalType": "address payable",
          "name": "seller",
          "type": "address"
        },
        {
          "indexed": false,
          "internalType": "address payable",
          "name": "owner",
          "type": "address"
        },
        {
          "indexed": false,
          "internalType": "uint256",
          "name": "price",
          "type": "uint256"
        },
        {
          "indexed": false,
          "internalType": "uint256",
          "name": "createdAt",
          "type": "uint256"
        },
        {
          "indexed": false,
          "internalType": "bool",
          "name": "sold",
          "type": "bool"
        }
      ],
      "name": "MarketItemCreated",
      "type": "event"
    },
    {
      "anonymous": false,
      "inputs": [
        {
          "indexed": true,
          "internalType": "uint256",
          "name": "itemId",
          "type": "uint256"
        },
        {
          "indexed": true,
          "internalType": "uint256",
          "name": "tokenId",
          "type": "uint256"
        },
        {
          "indexed": false,
          "internalType": "address payable",
          "name": "sellers",
          "type": "address"
        }
      ],
      "name": "MarketItemSold",
      "type": "event"
    },
    {
      "inputs": [
        {
          "internalType": "address",
          "name": "nftContractAddress",
          "type": "address"
        },
        {
          "internalType": "uint256",
          "name": "tokenId",
          "type": "uint256"
        },
        {
          "internalType": "uint256",
          "name": "price",
          "type": "uint256"
        }
      ],
      "name": "createMarketItem",
      "outputs": [],
      "stateMutability": "payable",
      "type": "function"
    },
    {
      "inputs": [
        {
          "internalType": "address",
          "name": "nftContractAddress",
          "type": "address"
        },
        {
          "internalType": "uint256",
          "name": "itemId",
          "type": "uint256"
        }
      ],
      "name": "createMarketItemSale",
      "outputs": [],
      "stateMutability": "payable",
      "type": "function"
    },
    {
      "inputs": [],
      "name": "fetchItemsCreated",
      "outputs": [
        {
          "components": [
            {
              "internalType": "uint256",
              "name": "itemId",
              "type": "uint256"
            },
            {
              "internalType": "address",
              "name": "nftContractAddress",
              "type": "address"
            },
            {
              "internalType": "uint256",
              "name": "tokenId",
              "type": "uint256"
            },
            {
              "internalType": "address payable",
              "name": "seller",
              "type": "address"
            },
            {
              "internalType": "address payable",
              "name": "owner",
              "type": "address"
            },
            {
              "internalType": "uint256",
              "name": "price",
              "type": "uint256"
            },
            {
              "internalType": "uint256",
              "name": "createdAt",
              "type": "uint256"
            },
            {
              "internalType": "bool",
              "name": "sold",
              "type": "bool"
            }
          ],
          "internalType": "struct NFTMarket.MarketItem[]",
          "name": "",
          "type": "tuple[]"
        }
      ],
      "stateMutability": "view",
      "type": "function"
    },
    {
      "inputs": [],
      "name": "fetchMarketItems",
      "outputs": [
        {
          "components": [
            {
              "internalType": "uint256",
              "name": "itemId",
              "type": "uint256"
            },
            {
              "internalType": "address",
              "name": "nftContractAddress",
              "type": "address"
            },
            {
              "internalType": "uint256",
              "name": "tokenId",
              "type": "uint256"
            },
            {
              "internalType": "address payable",
              "name": "seller",
              "type": "address"
            },
            {
              "internalType": "address payable",
              "name": "owner",
              "type": "address"
            },
            {
              "internalType": "uint256",
              "name": "price",
              "type": "uint256"
            },
            {
              "internalType": "uint256",
              "name": "createdAt",
              "type": "uint256"
            },
            {
              "internalType": "bool",
              "name": "sold",
              "type": "bool"
            }
          ],
          "internalType": "struct NFTMarket.MarketItem[]",
          "name": "",
          "type": "tuple[]"
        }
      ],
      "stateMutability": "view",
      "type": "function"
    },
    {
      "inputs": [],
      "name": "fetchMyNFTs",
      "outputs": [
        {
          "components": [
            {
              "internalType": "uint256",
              "name": "itemId",
              "type": "uint256"
            },
            {
              "internalType": "address",
              "name": "nftContractAddress",
              "type": "address"
            },
            {
              "internalType": "uint256",
              "name": "tokenId",
              "type": "uint256"
            },
            {
              "internalType": "address payable",
              "name": "seller",
              "type": "address"
            },
            {
              "internalType": "address payable",
              "name": "owner",
              "type": "address"
            },
            {
              "internalType": "uint256",
              "name": "price",
              "type": "uint256"
            },
            {
              "internalType": "uint256",
              "name": "createdAt",
              "type": "uint256"
            },
            {
              "internalType": "bool",
              "name": "sold",
              "type": "bool"
            }
          ],
          "internalType": "struct NFTMarket.MarketItem[]",
          "name": "",
          "type": "tuple[]"
        }
      ],
      "stateMutability": "view",
      "type": "function"
    },
    {
      "inputs": [],
      "name": "getListingPrice",
      "outputs": [
        {
          "internalType": "uint256",
          "name": "_listingPrice",
          "type": "uint256"
        }
      ],
      "stateMutability": "view",
      "type": "function"
    }
  ],
  "bytecode": "0x6080604052666a94d74f43000060045534801561001b57600080fd5b50600160008190555033600360006101000a81548173ffffffffffffffffffffffffffffffffffffffff021916908373ffffffffffffffffffffffffffffffffffffffff1602179055506119b7806100746000396000f3fe6080604052600436106100555760003560e01c80630f08efe01461005a57806312e8558514610085578063202e3740146100b057806358eb2df5146100db578063a425dd09146100f7578063f064c32e14610113575b600080fd5b34801561006657600080fd5b5061006f61013e565b60405161007c9190611406565b60405180910390f35b34801561009157600080fd5b5061009a610420565b6040516100a79190611437565b60405180910390f35b3480156100bc57600080fd5b506100c561042a565b6040516100d29190611406565b60405180910390f35b6100f560048036038101906100f091906114af565b610799565b005b610111600480360381019061010c9190611502565b610b10565b005b34801561011f57600080fd5b50610128610e02565b6040516101359190611406565b60405180910390f35b6060600061014c6001611171565b9050600061015a6002611171565b826101659190611571565b90506000808267ffffffffffffffff811115610184576101836115a5565b5b6040519080825280602002602001820160405280156101bd57816020015b6101aa611195565b8152602001906001900390816101a25790505b50905060005b8481101561041557600073ffffffffffffffffffffffffffffffffffffffff16600560006001846101f491906115d4565b815260200190815260200160002060040160009054906101000a900473ffffffffffffffffffffffffffffffffffffffff1673ffffffffffffffffffffffffffffffffffffffff1614156104025760006005600060018461025591906115d4565b815260200190815260200160002060000154905060006005600083815260200190815260200160002090508060405180610100016040529081600082015481526020016001820160009054906101000a900473ffffffffffffffffffffffffffffffffffffffff1673ffffffffffffffffffffffffffffffffffffffff1673ffffffffffffffffffffffffffffffffffffffff168152602001600282015481526020016003820160009054906101000a900473ffffffffffffffffffffffffffffffffffffffff1673ffffffffffffffffffffffffffffffffffffffff1673ffffffffffffffffffffffffffffffffffffffff1681526020016004820160009054906101000a900473ffffffffffffffffffffffffffffffffffffffff1673ffffffffffffffffffffffffffffffffffffffff1673ffffffffffffffffffffffffffffffffffffffff16815260200160058201548152602001600682015481526020016007820160009054906101000a900460ff1615151515815250508483815181106103e5576103e461162a565b5b60200260200101819052506001856103fd91906115d4565b945050505b808061040d90611659565b9150506101c3565b508094505050505090565b6000600454905090565b606060006104386001611171565b905060008060005b838110156104e1573373ffffffffffffffffffffffffffffffffffffffff166005600060018461047091906115d4565b815260200190815260200160002060040160009054906101000a900473ffffffffffffffffffffffffffffffffffffffff1673ffffffffffffffffffffffffffffffffffffffff1614156104ce576001836104cb91906115d4565b92505b80806104d990611659565b915050610440565b5060008367ffffffffffffffff8111156104fe576104fd6115a5565b5b60405190808252806020026020018201604052801561053757816020015b610524611195565b81526020019060019003908161051c5790505b50905060005b8481101561078e573373ffffffffffffffffffffffffffffffffffffffff166005600060018461056d91906115d4565b815260200190815260200160002060040160009054906101000a900473ffffffffffffffffffffffffffffffffffffffff1673ffffffffffffffffffffffffffffffffffffffff16141561077b576000600560006001846105ce91906115d4565b815260200190815260200160002060000154905060006005600083815260200190815260200160002090508060405180610100016040529081600082015481526020016001820160009054906101000a900473ffffffffffffffffffffffffffffffffffffffff1673ffffffffffffffffffffffffffffffffffffffff1673ffffffffffffffffffffffffffffffffffffffff168152602001600282015481526020016003820160009054906101000a900473ffffffffffffffffffffffffffffffffffffffff1673ffffffffffffffffffffffffffffffffffffffff1673ffffffffffffffffffffffffffffffffffffffff1681526020016004820160009054906101000a900473ffffffffffffffffffffffffffffffffffffffff1673ffffffffffffffffffffffffffffffffffffffff1673ffffffffffffffffffffffffffffffffffffffff16815260200160058201548152602001600682015481526020016007820160009054906101000a900460ff16151515158152505084838151811061075e5761075d61162a565b5b602002602001018190525060018561077691906115d4565b945050505b808061078690611659565b91505061053d565b508094505050505090565b600260005414156107df576040517f08c379a00000000000000000000000000000000000000000000000000000000081526004016107d6906116ff565b60405180910390fd5b60026000819055506000811161082a576040517f08c379a00000000000000000000000000000000000000000000000000000000081526004016108219061176b565b60405180910390fd5b600454341461086e576040517f08c379a0000000000000000000000000000000000000000000000000000000008152600401610865906117fd565b60405180910390fd5b610878600161117f565b60006108846001611171565b90506040518061010001604052808281526020018573ffffffffffffffffffffffffffffffffffffffff1681526020018481526020013373ffffffffffffffffffffffffffffffffffffffff168152602001600073ffffffffffffffffffffffffffffffffffffffff16815260200183815260200142815260200160001515815250600560008381526020019081526020016000206000820151816000015560208201518160010160006101000a81548173ffffffffffffffffffffffffffffffffffffffff021916908373ffffffffffffffffffffffffffffffffffffffff1602179055506040820151816002015560608201518160030160006101000a81548173ffffffffffffffffffffffffffffffffffffffff021916908373ffffffffffffffffffffffffffffffffffffffff16021790555060808201518160040160006101000a81548173ffffffffffffffffffffffffffffffffffffffff021916908373ffffffffffffffffffffffffffffffffffffffff16021790555060a0820151816005015560c0820151816006015560e08201518160070160006101000a81548160ff0219169083151502179055509050508373ffffffffffffffffffffffffffffffffffffffff166323b872dd3330866040518463ffffffff1660e01b8152600401610a769392919061182c565b600060405180830381600087803b158015610a9057600080fd5b505af1158015610aa4573d6000803e3d6000fd5b50505050828473ffffffffffffffffffffffffffffffffffffffff16827fd0bb1eaea8ab6cd0c288f209757734c5e280d8f4e05f93b1db82da8db727875833600087426000604051610afa959493929190611881565b60405180910390a4506001600081905550505050565b60026000541415610b56576040517f08c379a0000000000000000000000000000000000000000000000000000000008152600401610b4d906116ff565b60405180910390fd5b6002600081905550600060056000838152602001908152602001600020600501549050600060056000848152602001908152602001600020600201549050813414610bd6576040517f08c379a0000000000000000000000000000000000000000000000000000000008152600401610bcd90611946565b60405180910390fd5b6005600084815260200190815260200160002060030160009054906101000a900473ffffffffffffffffffffffffffffffffffffffff1673ffffffffffffffffffffffffffffffffffffffff166108fc349081150290604051600060405180830381858888f19350505050158015610c52573d6000803e3d6000fd5b508373ffffffffffffffffffffffffffffffffffffffff166323b872dd3033846040518463ffffffff1660e01b8152600401610c909392919061182c565b600060405180830381600087803b158015610caa57600080fd5b505af1158015610cbe573d6000803e3d6000fd5b50505050336005600085815260200190815260200160002060040160006101000a81548173ffffffffffffffffffffffffffffffffffffffff021916908373ffffffffffffffffffffffffffffffffffffffff16021790555060016005600085815260200190815260200160002060070160006101000a81548160ff021916908315150217905550610d50600261117f565b600360009054906101000a900473ffffffffffffffffffffffffffffffffffffffff1673ffffffffffffffffffffffffffffffffffffffff166108fc6004549081150290604051600060405180830381858888f19350505050158015610dba573d6000803e3d6000fd5b5080837f18ea31d45b430c5a6a343a2912f8b8510eedd2f3f655126496535893b3bc9a5a33604051610dec9190611966565b60405180910390a3505060016000819055505050565b60606000610e106001611171565b905060008060005b83811015610eb9573373ffffffffffffffffffffffffffffffffffffffff1660056000600184610e4891906115d4565b815260200190815260200160002060030160009054906101000a900473ffffffffffffffffffffffffffffffffffffffff1673ffffffffffffffffffffffffffffffffffffffff161415610ea657600183610ea391906115d4565b92505b8080610eb190611659565b915050610e18565b5060008367ffffffffffffffff811115610ed657610ed56115a5565b5b604051908082528060200260200182016040528015610f0f57816020015b610efc611195565b815260200190600190039081610ef45790505b50905060005b84811015611166573373ffffffffffffffffffffffffffffffffffffffff1660056000600184610f4591906115d4565b815260200190815260200160002060030160009054906101000a900473ffffffffffffffffffffffffffffffffffffffff1673ffffffffffffffffffffffffffffffffffffffff16141561115357600060056000600184610fa691906115d4565b815260200190815260200160002060000154905060006005600083815260200190815260200160002090508060405180610100016040529081600082015481526020016001820160009054906101000a900473ffffffffffffffffffffffffffffffffffffffff1673ffffffffffffffffffffffffffffffffffffffff1673ffffffffffffffffffffffffffffffffffffffff168152602001600282015481526020016003820160009054906101000a900473ffffffffffffffffffffffffffffffffffffffff1673ffffffffffffffffffffffffffffffffffffffff1673ffffffffffffffffffffffffffffffffffffffff1681526020016004820160009054906101000a900473ffffffffffffffffffffffffffffffffffffffff1673ffffffffffffffffffffffffffffffffffffffff1673ffffffffffffffffffffffffffffffffffffffff16815260200160058201548152602001600682015481526020016007820160009054906101000a900460ff1615151515815250508483815181106111365761113561162a565b5b602002602001018190525060018561114e91906115d4565b945050505b808061115e90611659565b915050610f15565b508094505050505090565b600081600001549050919050565b6001816000016000828254019250508190555050565b60405180610100016040528060008152602001600073ffffffffffffffffffffffffffffffffffffffff16815260200160008152602001600073ffffffffffffffffffffffffffffffffffffffff168152602001600073ffffffffffffffffffffffffffffffffffffffff16815260200160008152602001600081526020016000151581525090565b600081519050919050565b600082825260208201905092915050565b6000819050602082019050919050565b6000819050919050565b61125d8161124a565b82525050565b600073ffffffffffffffffffffffffffffffffffffffff82169050919050565b600061128e82611263565b9050919050565b61129e81611283565b82525050565b60006112af82611263565b9050919050565b6112bf816112a4565b82525050565b60008115159050919050565b6112da816112c5565b82525050565b610100820160008201516112f76000850182611254565b50602082015161130a6020850182611295565b50604082015161131d6040850182611254565b50606082015161133060608501826112b6565b50608082015161134360808501826112b6565b5060a082015161135660a0850182611254565b5060c082015161136960c0850182611254565b5060e082015161137c60e08501826112d1565b50505050565b600061138e83836112e0565b6101008301905092915050565b6000602082019050919050565b60006113b38261121e565b6113bd8185611229565b93506113c88361123a565b8060005b838110156113f95781516113e08882611382565b97506113eb8361139b565b9250506001810190506113cc565b5085935050505092915050565b6000602082019050818103600083015261142081846113a8565b905092915050565b6114318161124a565b82525050565b600060208201905061144c6000830184611428565b92915050565b600080fd5b61146081611283565b811461146b57600080fd5b50565b60008135905061147d81611457565b92915050565b61148c8161124a565b811461149757600080fd5b50565b6000813590506114a981611483565b92915050565b6000806000606084860312156114c8576114c7611452565b5b60006114d68682870161146e565b93505060206114e78682870161149a565b92505060406114f88682870161149a565b9150509250925092565b6000806040838503121561151957611518611452565b5b60006115278582860161146e565b92505060206115388582860161149a565b9150509250929050565b7f4e487b7100000000000000000000000000000000000000000000000000000000600052601160045260246000fd5b600061157c8261124a565b91506115878361124a565b92508282101561159a57611599611542565b5b828203905092915050565b7f4e487b7100000000000000000000000000000000000000000000000000000000600052604160045260246000fd5b60006115df8261124a565b91506115ea8361124a565b9250827fffffffffffffffffffffffffffffffffffffffffffffffffffffffffffffffff0382111561161f5761161e611542565b5b828201905092915050565b7f4e487b7100000000000000000000000000000000000000000000000000000000600052603260045260246000fd5b60006116648261124a565b91507fffffffffffffffffffffffffffffffffffffffffffffffffffffffffffffffff82141561169757611696611542565b5b600182019050919050565b600082825260208201905092915050565b7f5265656e7472616e637947756172643a207265656e7472616e742063616c6c00600082015250565b60006116e9601f836116a2565b91506116f4826116b3565b602082019050919050565b60006020820190508181036000830152611718816116dc565b9050919050565b7f5072696365206d757374206265206174206c6561737420312077656900000000600082015250565b6000611755601c836116a2565b91506117608261171f565b602082019050919050565b6000602082019050818103600083015261178481611748565b9050919050565b7f5072696365206d75737420626520657175616c20746f20746865206c6973746960008201527f6e67207072696365000000000000000000000000000000000000000000000000602082015250565b60006117e76028836116a2565b91506117f28261178b565b604082019050919050565b60006020820190508181036000830152611816816117da565b9050919050565b61182681611283565b82525050565b6000606082019050611841600083018661181d565b61184e602083018561181d565b61185b6040830184611428565b949350505050565b61186c816112a4565b82525050565b61187b816112c5565b82525050565b600060a0820190506118966000830188611863565b6118a36020830187611863565b6118b06040830186611428565b6118bd6060830185611428565b6118ca6080830184611872565b9695505050505050565b7f5375626d6974207468652061736b696e6720707269636520696e206f7264657260008201527f20746f20636f6d706c6574652074686520707572636861736500000000000000602082015250565b60006119306039836116a2565b915061193b826118d4565b604082019050919050565b6000602082019050818103600083015261195f81611923565b9050919050565b600060208201905061197b6000830184611863565b9291505056fea264697066735822122091386573c3586e24ae65026b5215ea31b7bb5d4ef17255978aff99f868afa68764736f6c634300080b0033",
  "linkReferences": {},
  "deployedLinkReferences": {}
}